{
	"contracts/FP2.sol": {
		"DigitalIdentityManagement": {
			"abi": [
				{
					"inputs": [],
					"stateMutability": "nonpayable",
					"type": "constructor"
				},
				{
					"anonymous": false,
					"inputs": [
						{
							"indexed": true,
							"internalType": "address",
							"name": "owner",
							"type": "address"
						},
						{
							"indexed": false,
							"internalType": "string",
							"name": "name",
							"type": "string"
						}
					],
					"name": "IdentityCreated",
					"type": "event"
				},
				{
					"anonymous": false,
					"inputs": [
						{
							"indexed": true,
							"internalType": "address",
							"name": "owner",
							"type": "address"
						}
					],
					"name": "IdentityVerified",
					"type": "event"
				},
				{
					"inputs": [],
					"name": "contractOwner",
					"outputs": [
						{
							"internalType": "address",
							"name": "",
							"type": "address"
						}
					],
					"stateMutability": "view",
					"type": "function"
				},
				{
					"inputs": [
						{
							"internalType": "string",
							"name": "_name",
							"type": "string"
						}
					],
					"name": "createIdentity",
					"outputs": [],
					"stateMutability": "nonpayable",
					"type": "function"
				},
				{
					"inputs": [],
					"name": "getContractOwner",
					"outputs": [
						{
							"internalType": "address",
							"name": "",
							"type": "address"
						}
					],
					"stateMutability": "view",
					"type": "function"
				},
				{
					"inputs": [
						{
							"internalType": "address",
							"name": "_owner",
							"type": "address"
						}
					],
					"name": "getIdentity",
					"outputs": [
						{
							"internalType": "string",
							"name": "",
							"type": "string"
						},
						{
							"internalType": "address",
							"name": "",
							"type": "address"
						},
						{
							"internalType": "bool",
							"name": "",
							"type": "bool"
						}
					],
					"stateMutability": "view",
					"type": "function"
				},
				{
					"inputs": [
						{
							"internalType": "address",
							"name": "",
							"type": "address"
						}
					],
					"name": "identities",
					"outputs": [
						{
							"internalType": "string",
							"name": "name",
							"type": "string"
						},
						{
							"internalType": "address",
							"name": "owner",
							"type": "address"
						},
						{
							"internalType": "bool",
							"name": "verified",
							"type": "bool"
						}
					],
					"stateMutability": "view",
					"type": "function"
				},
				{
					"inputs": [
						{
							"internalType": "address",
							"name": "_owner",
							"type": "address"
						}
					],
					"name": "verifyIdentity",
					"outputs": [],
					"stateMutability": "nonpayable",
					"type": "function"
				}
			],
			"devdoc": {
				"kind": "dev",
				"methods": {},
				"version": 1
			},
			"evm": {
				"assembly": "    /* \"contracts/FP2.sol\":57:1471  contract DigitalIdentityManagement {... */\n  mstore(0x40, 0x80)\n    /* \"contracts/FP2.sol\":396:453  constructor() {... */\n  callvalue\n  dup1\n  iszero\n  tag_1\n  jumpi\n  0x00\n  dup1\n  revert\ntag_1:\n  pop\n    /* \"contracts/FP2.sol\":436:446  msg.sender */\n  caller\n    /* \"contracts/FP2.sol\":420:433  contractOwner */\n  0x01\n  0x00\n    /* \"contracts/FP2.sol\":420:446  contractOwner = msg.sender */\n  0x0100\n  exp\n  dup2\n  sload\n  dup2\n  0xffffffffffffffffffffffffffffffffffffffff\n  mul\n  not\n  and\n  swap1\n  dup4\n  0xffffffffffffffffffffffffffffffffffffffff\n  and\n  mul\n  or\n  swap1\n  sstore\n  pop\n    /* \"contracts/FP2.sol\":57:1471  contract DigitalIdentityManagement {... */\n  dataSize(sub_0)\n  dup1\n  dataOffset(sub_0)\n  0x00\n  codecopy\n  0x00\n  return\nstop\n\nsub_0: assembly {\n        /* \"contracts/FP2.sol\":57:1471  contract DigitalIdentityManagement {... */\n      mstore(0x40, 0x80)\n      callvalue\n      dup1\n      iszero\n      tag_1\n      jumpi\n      0x00\n      dup1\n      revert\n    tag_1:\n      pop\n      jumpi(tag_2, lt(calldatasize, 0x04))\n      shr(0xe0, calldataload(0x00))\n      dup1\n      0x2fea7b81\n      eq\n      tag_3\n      jumpi\n      dup1\n      0x42ade784\n      eq\n      tag_4\n      jumpi\n      dup1\n      0x442890d5\n      eq\n      tag_5\n      jumpi\n      dup1\n      0xb5b90fd9\n      eq\n      tag_6\n      jumpi\n      dup1\n      0xce606ee0\n      eq\n      tag_7\n      jumpi\n      dup1\n      0xf653b81e\n      eq\n      tag_8\n      jumpi\n    tag_2:\n      0x00\n      dup1\n      revert\n        /* \"contracts/FP2.sol\":1151:1368  function getIdentity(address _owner) public view returns (string memory, address, bool) {... */\n    tag_3:\n      tag_9\n      0x04\n      dup1\n      calldatasize\n      sub\n      dup2\n      add\n      swap1\n      tag_10\n      swap2\n      swap1\n      tag_11\n      jump\t// in\n    tag_10:\n      tag_12\n      jump\t// in\n    tag_9:\n      mload(0x40)\n      tag_13\n      swap4\n      swap3\n      swap2\n      swap1\n      tag_14\n      jump\t// in\n    tag_13:\n      mload(0x40)\n      dup1\n      swap2\n      sub\n      swap1\n      return\n        /* \"contracts/FP2.sol\":459:791  function createIdentity(string memory _name) public {... */\n    tag_4:\n      tag_15\n      0x04\n      dup1\n      calldatasize\n      sub\n      dup2\n      add\n      swap1\n      tag_16\n      swap2\n      swap1\n      tag_17\n      jump\t// in\n    tag_16:\n      tag_18\n      jump\t// in\n    tag_15:\n      stop\n        /* \"contracts/FP2.sol\":1374:1469  function getContractOwner() public view returns (address) {... */\n    tag_5:\n      tag_19\n      tag_20\n      jump\t// in\n    tag_19:\n      mload(0x40)\n      tag_21\n      swap2\n      swap1\n      tag_22\n      jump\t// in\n    tag_21:\n      mload(0x40)\n      dup1\n      swap2\n      sub\n      swap1\n      return\n        /* \"contracts/FP2.sol\":797:1145  function verifyIdentity(address _owner) public {... */\n    tag_6:\n      tag_23\n      0x04\n      dup1\n      calldatasize\n      sub\n      dup2\n      add\n      swap1\n      tag_24\n      swap2\n      swap1\n      tag_11\n      jump\t// in\n    tag_24:\n      tag_25\n      jump\t// in\n    tag_23:\n      stop\n        /* \"contracts/FP2.sol\":246:274  address public contractOwner */\n    tag_7:\n      tag_26\n      tag_27\n      jump\t// in\n    tag_26:\n      mload(0x40)\n      tag_28\n      swap2\n      swap1\n      tag_22\n      jump\t// in\n    tag_28:\n      mload(0x40)\n      dup1\n      swap2\n      sub\n      swap1\n      return\n        /* \"contracts/FP2.sol\":194:240  mapping(address => Identity) public identities */\n    tag_8:\n      tag_29\n      0x04\n      dup1\n      calldatasize\n      sub\n      dup2\n      add\n      swap1\n      tag_30\n      swap2\n      swap1\n      tag_11\n      jump\t// in\n    tag_30:\n      tag_31\n      jump\t// in\n    tag_29:\n      mload(0x40)\n      tag_32\n      swap4\n      swap3\n      swap2\n      swap1\n      tag_14\n      jump\t// in\n    tag_32:\n      mload(0x40)\n      dup1\n      swap2\n      sub\n      swap1\n      return\n        /* \"contracts/FP2.sol\":1151:1368  function getIdentity(address _owner) public view returns (string memory, address, bool) {... */\n    tag_12:\n        /* \"contracts/FP2.sol\":1209:1222  string memory */\n      0x60\n        /* \"contracts/FP2.sol\":1224:1231  address */\n      0x00\n        /* \"contracts/FP2.sol\":1233:1237  bool */\n      dup1\n        /* \"contracts/FP2.sol\":1249:1273  Identity memory identity */\n      0x00\n        /* \"contracts/FP2.sol\":1276:1286  identities */\n      dup1\n        /* \"contracts/FP2.sol\":1276:1294  identities[_owner] */\n      0x00\n        /* \"contracts/FP2.sol\":1287:1293  _owner */\n      dup7\n        /* \"contracts/FP2.sol\":1276:1294  identities[_owner] */\n      0xffffffffffffffffffffffffffffffffffffffff\n      and\n      0xffffffffffffffffffffffffffffffffffffffff\n      and\n      dup2\n      mstore\n      0x20\n      add\n      swap1\n      dup2\n      mstore\n      0x20\n      add\n      0x00\n      keccak256\n        /* \"contracts/FP2.sol\":1249:1294  Identity memory identity = identities[_owner] */\n      mload(0x40)\n      dup1\n      0x60\n      add\n      0x40\n      mstore\n      swap1\n      dup2\n      0x00\n      dup3\n      add\n      dup1\n      sload\n      tag_34\n      swap1\n      tag_35\n      jump\t// in\n    tag_34:\n      dup1\n      0x1f\n      add\n      0x20\n      dup1\n      swap2\n      div\n      mul\n      0x20\n      add\n      mload(0x40)\n      swap1\n      dup2\n      add\n      0x40\n      mstore\n      dup1\n      swap3\n      swap2\n      swap1\n      dup2\n      dup2\n      mstore\n      0x20\n      add\n      dup3\n      dup1\n      sload\n      tag_36\n      swap1\n      tag_35\n      jump\t// in\n    tag_36:\n      dup1\n      iszero\n      tag_37\n      jumpi\n      dup1\n      0x1f\n      lt\n      tag_38\n      jumpi\n      0x0100\n      dup1\n      dup4\n      sload\n      div\n      mul\n      dup4\n      mstore\n      swap2\n      0x20\n      add\n      swap2\n      jump(tag_37)\n    tag_38:\n      dup3\n      add\n      swap2\n      swap1\n      0x00\n      mstore\n      keccak256(0x00, 0x20)\n      swap1\n    tag_39:\n      dup2\n      sload\n      dup2\n      mstore\n      swap1\n      0x01\n      add\n      swap1\n      0x20\n      add\n      dup1\n      dup4\n      gt\n      tag_39\n      jumpi\n      dup3\n      swap1\n      sub\n      0x1f\n      and\n      dup3\n      add\n      swap2\n    tag_37:\n      pop\n      pop\n      pop\n      pop\n      pop\n      dup2\n      mstore\n      0x20\n      add\n      0x01\n      dup3\n      add\n      0x00\n      swap1\n      sload\n      swap1\n      0x0100\n      exp\n      swap1\n      div\n      0xffffffffffffffffffffffffffffffffffffffff\n      and\n      0xffffffffffffffffffffffffffffffffffffffff\n      and\n      0xffffffffffffffffffffffffffffffffffffffff\n      and\n      dup2\n      mstore\n      0x20\n      add\n      0x01\n      dup3\n      add\n      0x14\n      swap1\n      sload\n      swap1\n      0x0100\n      exp\n      swap1\n      div\n      0xff\n      and\n      iszero\n      iszero\n      iszero\n      iszero\n      dup2\n      mstore\n      pop\n      pop\n      swap1\n      pop\n        /* \"contracts/FP2.sol\":1312:1320  identity */\n      dup1\n        /* \"contracts/FP2.sol\":1312:1325  identity.name */\n      0x00\n      add\n      mload\n        /* \"contracts/FP2.sol\":1327:1335  identity */\n      dup2\n        /* \"contracts/FP2.sol\":1327:1341  identity.owner */\n      0x20\n      add\n      mload\n        /* \"contracts/FP2.sol\":1343:1351  identity */\n      dup3\n        /* \"contracts/FP2.sol\":1343:1360  identity.verified */\n      0x40\n      add\n      mload\n        /* \"contracts/FP2.sol\":1304:1361  return (identity.name, identity.owner, identity.verified) */\n      swap4\n      pop\n      swap4\n      pop\n      swap4\n      pop\n      pop\n        /* \"contracts/FP2.sol\":1151:1368  function getIdentity(address _owner) public view returns (string memory, address, bool) {... */\n      swap2\n      swap4\n      swap1\n      swap3\n      pop\n      jump\t// out\n        /* \"contracts/FP2.sol\":459:791  function createIdentity(string memory _name) public {... */\n    tag_18:\n        /* \"contracts/FP2.sol\":551:552  0 */\n      0x00\n        /* \"contracts/FP2.sol\":535:540  _name */\n      dup2\n        /* \"contracts/FP2.sol\":529:548  bytes(_name).length */\n      mload\n        /* \"contracts/FP2.sol\":529:552  bytes(_name).length > 0 */\n      gt\n        /* \"contracts/FP2.sol\":521:577  require(bytes(_name).length > 0, \"Name cannot be empty\") */\n      tag_41\n      jumpi\n      mload(0x40)\n      0x08c379a000000000000000000000000000000000000000000000000000000000\n      dup2\n      mstore\n      0x04\n      add\n      tag_42\n      swap1\n      tag_43\n      jump\t// in\n    tag_42:\n      mload(0x40)\n      dup1\n      swap2\n      sub\n      swap1\n      revert\n    tag_41:\n        /* \"contracts/FP2.sol\":635:636  0 */\n      0x00\n        /* \"contracts/FP2.sol\":595:637  identities[msg.sender].owner == address(0) */\n      0xffffffffffffffffffffffffffffffffffffffff\n      and\n        /* \"contracts/FP2.sol\":595:605  identities */\n      0x00\n        /* \"contracts/FP2.sol\":595:617  identities[msg.sender] */\n      dup1\n        /* \"contracts/FP2.sol\":606:616  msg.sender */\n      caller\n        /* \"contracts/FP2.sol\":595:617  identities[msg.sender] */\n      0xffffffffffffffffffffffffffffffffffffffff\n      and\n      0xffffffffffffffffffffffffffffffffffffffff\n      and\n      dup2\n      mstore\n      0x20\n      add\n      swap1\n      dup2\n      mstore\n      0x20\n      add\n      0x00\n      keccak256\n        /* \"contracts/FP2.sol\":595:623  identities[msg.sender].owner */\n      0x01\n      add\n      0x00\n      swap1\n      sload\n      swap1\n      0x0100\n      exp\n      swap1\n      div\n      0xffffffffffffffffffffffffffffffffffffffff\n      and\n        /* \"contracts/FP2.sol\":595:637  identities[msg.sender].owner == address(0) */\n      0xffffffffffffffffffffffffffffffffffffffff\n      and\n      eq\n        /* \"contracts/FP2.sol\":587:665  require(identities[msg.sender].owner == address(0), \"Identity already exists\") */\n      tag_44\n      jumpi\n      mload(0x40)\n      0x08c379a000000000000000000000000000000000000000000000000000000000\n      dup2\n      mstore\n      0x04\n      add\n      tag_45\n      swap1\n      tag_46\n      jump\t// in\n    tag_45:\n      mload(0x40)\n      dup1\n      swap2\n      sub\n      swap1\n      revert\n    tag_44:\n        /* \"contracts/FP2.sol\":701:735  Identity(_name, msg.sender, false) */\n      mload(0x40)\n      dup1\n      0x60\n      add\n      0x40\n      mstore\n      dup1\n        /* \"contracts/FP2.sol\":710:715  _name */\n      dup3\n        /* \"contracts/FP2.sol\":701:735  Identity(_name, msg.sender, false) */\n      dup2\n      mstore\n      0x20\n      add\n        /* \"contracts/FP2.sol\":717:727  msg.sender */\n      caller\n        /* \"contracts/FP2.sol\":701:735  Identity(_name, msg.sender, false) */\n      0xffffffffffffffffffffffffffffffffffffffff\n      and\n      dup2\n      mstore\n      0x20\n      add\n        /* \"contracts/FP2.sol\":729:734  false */\n      0x00\n        /* \"contracts/FP2.sol\":701:735  Identity(_name, msg.sender, false) */\n      iszero\n      iszero\n      dup2\n      mstore\n      pop\n        /* \"contracts/FP2.sol\":676:686  identities */\n      0x00\n        /* \"contracts/FP2.sol\":676:698  identities[msg.sender] */\n      dup1\n        /* \"contracts/FP2.sol\":687:697  msg.sender */\n      caller\n        /* \"contracts/FP2.sol\":676:698  identities[msg.sender] */\n      0xffffffffffffffffffffffffffffffffffffffff\n      and\n      0xffffffffffffffffffffffffffffffffffffffff\n      and\n      dup2\n      mstore\n      0x20\n      add\n      swap1\n      dup2\n      mstore\n      0x20\n      add\n      0x00\n      keccak256\n        /* \"contracts/FP2.sol\":676:735  identities[msg.sender] = Identity(_name, msg.sender, false) */\n      0x00\n      dup3\n      add\n      mload\n      dup2\n      0x00\n      add\n      swap1\n      dup1\n      mload\n      swap1\n      0x20\n      add\n      swap1\n      tag_47\n      swap3\n      swap2\n      swap1\n      tag_48\n      jump\t// in\n    tag_47:\n      pop\n      0x20\n      dup3\n      add\n      mload\n      dup2\n      0x01\n      add\n      exp(0x0100, 0x00)\n      dup2\n      sload\n      dup2\n      0xffffffffffffffffffffffffffffffffffffffff\n      mul\n      not\n      and\n      swap1\n      dup4\n      0xffffffffffffffffffffffffffffffffffffffff\n      and\n      mul\n      or\n      swap1\n      sstore\n      pop\n      0x40\n      dup3\n      add\n      mload\n      dup2\n      0x01\n      add\n      exp(0x0100, 0x14)\n      dup2\n      sload\n      dup2\n      0xff\n      mul\n      not\n      and\n      swap1\n      dup4\n      iszero\n      iszero\n      mul\n      or\n      swap1\n      sstore\n      pop\n      swap1\n      pop\n      pop\n        /* \"contracts/FP2.sol\":766:776  msg.sender */\n      caller\n        /* \"contracts/FP2.sol\":750:784  IdentityCreated(msg.sender, _name) */\n      0xffffffffffffffffffffffffffffffffffffffff\n      and\n      0xc935904fde3b784f003631fba58f14c99e3135ec5e11d22997ff5aca198f9474\n        /* \"contracts/FP2.sol\":778:783  _name */\n      dup3\n        /* \"contracts/FP2.sol\":750:784  IdentityCreated(msg.sender, _name) */\n      mload(0x40)\n      tag_49\n      swap2\n      swap1\n      tag_50\n      jump\t// in\n    tag_49:\n      mload(0x40)\n      dup1\n      swap2\n      sub\n      swap1\n      log2\n        /* \"contracts/FP2.sol\":459:791  function createIdentity(string memory _name) public {... */\n      pop\n      jump\t// out\n        /* \"contracts/FP2.sol\":1374:1469  function getContractOwner() public view returns (address) {... */\n    tag_20:\n        /* \"contracts/FP2.sol\":1423:1430  address */\n      0x00\n        /* \"contracts/FP2.sol\":1449:1462  contractOwner */\n      0x01\n      0x00\n      swap1\n      sload\n      swap1\n      0x0100\n      exp\n      swap1\n      div\n      0xffffffffffffffffffffffffffffffffffffffff\n      and\n        /* \"contracts/FP2.sol\":1442:1462  return contractOwner */\n      swap1\n      pop\n        /* \"contracts/FP2.sol\":1374:1469  function getContractOwner() public view returns (address) {... */\n      swap1\n      jump\t// out\n        /* \"contracts/FP2.sol\":797:1145  function verifyIdentity(address _owner) public {... */\n    tag_25:\n        /* \"contracts/FP2.sol\":876:882  _owner */\n      dup1\n        /* \"contracts/FP2.sol\":862:882  msg.sender == _owner */\n      0xffffffffffffffffffffffffffffffffffffffff\n      and\n        /* \"contracts/FP2.sol\":862:872  msg.sender */\n      caller\n        /* \"contracts/FP2.sol\":862:882  msg.sender == _owner */\n      0xffffffffffffffffffffffffffffffffffffffff\n      and\n      eq\n        /* \"contracts/FP2.sol\":862:913  msg.sender == _owner || msg.sender == contractOwner */\n      dup1\n      tag_53\n      jumpi\n      pop\n        /* \"contracts/FP2.sol\":900:913  contractOwner */\n      0x01\n      0x00\n      swap1\n      sload\n      swap1\n      0x0100\n      exp\n      swap1\n      div\n      0xffffffffffffffffffffffffffffffffffffffff\n      and\n        /* \"contracts/FP2.sol\":886:913  msg.sender == contractOwner */\n      0xffffffffffffffffffffffffffffffffffffffff\n      and\n        /* \"contracts/FP2.sol\":886:896  msg.sender */\n      caller\n        /* \"contracts/FP2.sol\":886:913  msg.sender == contractOwner */\n      0xffffffffffffffffffffffffffffffffffffffff\n      and\n      eq\n        /* \"contracts/FP2.sol\":862:913  msg.sender == _owner || msg.sender == contractOwner */\n    tag_53:\n        /* \"contracts/FP2.sol\":854:970  require(msg.sender == _owner || msg.sender == contractOwner, \"Only the owner or contract owner can verify identity\") */\n      tag_54\n      jumpi\n      mload(0x40)\n      0x08c379a000000000000000000000000000000000000000000000000000000000\n      dup2\n      mstore\n      0x04\n      add\n      tag_55\n      swap1\n      tag_56\n      jump\t// in\n    tag_55:\n      mload(0x40)\n      dup1\n      swap2\n      sub\n      swap1\n      revert\n    tag_54:\n        /* \"contracts/FP2.sol\":1024:1025  0 */\n      0x00\n        /* \"contracts/FP2.sol\":988:1026  identities[_owner].owner != address(0) */\n      0xffffffffffffffffffffffffffffffffffffffff\n      and\n        /* \"contracts/FP2.sol\":988:998  identities */\n      0x00\n        /* \"contracts/FP2.sol\":988:1006  identities[_owner] */\n      dup1\n        /* \"contracts/FP2.sol\":999:1005  _owner */\n      dup4\n        /* \"contracts/FP2.sol\":988:1006  identities[_owner] */\n      0xffffffffffffffffffffffffffffffffffffffff\n      and\n      0xffffffffffffffffffffffffffffffffffffffff\n      and\n      dup2\n      mstore\n      0x20\n      add\n      swap1\n      dup2\n      mstore\n      0x20\n      add\n      0x00\n      keccak256\n        /* \"contracts/FP2.sol\":988:1012  identities[_owner].owner */\n      0x01\n      add\n      0x00\n      swap1\n      sload\n      swap1\n      0x0100\n      exp\n      swap1\n      div\n      0xffffffffffffffffffffffffffffffffffffffff\n      and\n        /* \"contracts/FP2.sol\":988:1026  identities[_owner].owner != address(0) */\n      0xffffffffffffffffffffffffffffffffffffffff\n      and\n      eq\n      iszero\n        /* \"contracts/FP2.sol\":980:1054  require(identities[_owner].owner != address(0), \"Identity does not exist\") */\n      tag_57\n      jumpi\n      mload(0x40)\n      0x08c379a000000000000000000000000000000000000000000000000000000000\n      dup2\n      mstore\n      0x04\n      add\n      tag_58\n      swap1\n      tag_59\n      jump\t// in\n    tag_58:\n      mload(0x40)\n      dup1\n      swap2\n      sub\n      swap1\n      revert\n    tag_57:\n        /* \"contracts/FP2.sol\":1095:1099  true */\n      0x01\n        /* \"contracts/FP2.sol\":1065:1075  identities */\n      0x00\n        /* \"contracts/FP2.sol\":1065:1083  identities[_owner] */\n      dup1\n        /* \"contracts/FP2.sol\":1076:1082  _owner */\n      dup4\n        /* \"contracts/FP2.sol\":1065:1083  identities[_owner] */\n      0xffffffffffffffffffffffffffffffffffffffff\n      and\n      0xffffffffffffffffffffffffffffffffffffffff\n      and\n      dup2\n      mstore\n      0x20\n      add\n      swap1\n      dup2\n      mstore\n      0x20\n      add\n      0x00\n      keccak256\n        /* \"contracts/FP2.sol\":1065:1092  identities[_owner].verified */\n      0x01\n      add\n      0x14\n        /* \"contracts/FP2.sol\":1065:1099  identities[_owner].verified = true */\n      0x0100\n      exp\n      dup2\n      sload\n      dup2\n      0xff\n      mul\n      not\n      and\n      swap1\n      dup4\n      iszero\n      iszero\n      mul\n      or\n      swap1\n      sstore\n      pop\n        /* \"contracts/FP2.sol\":1131:1137  _owner */\n      dup1\n        /* \"contracts/FP2.sol\":1114:1138  IdentityVerified(_owner) */\n      0xffffffffffffffffffffffffffffffffffffffff\n      and\n      0x02f93fdaafad8edad1ca75101b1fbda62e64ab9afc26d0ea801ccf6ef02c09ab\n      mload(0x40)\n      mload(0x40)\n      dup1\n      swap2\n      sub\n      swap1\n      log2\n        /* \"contracts/FP2.sol\":797:1145  function verifyIdentity(address _owner) public {... */\n      pop\n      jump\t// out\n        /* \"contracts/FP2.sol\":246:274  address public contractOwner */\n    tag_27:\n      0x01\n      0x00\n      swap1\n      sload\n      swap1\n      0x0100\n      exp\n      swap1\n      div\n      0xffffffffffffffffffffffffffffffffffffffff\n      and\n      dup2\n      jump\t// out\n        /* \"contracts/FP2.sol\":194:240  mapping(address => Identity) public identities */\n    tag_31:\n      mstore(0x20, 0x00)\n      dup1\n      0x00\n      mstore\n      keccak256(0x00, 0x40)\n      0x00\n      swap2\n      pop\n      swap1\n      pop\n      dup1\n      0x00\n      add\n      dup1\n      sload\n      tag_60\n      swap1\n      tag_35\n      jump\t// in\n    tag_60:\n      dup1\n      0x1f\n      add\n      0x20\n      dup1\n      swap2\n      div\n      mul\n      0x20\n      add\n      mload(0x40)\n      swap1\n      dup2\n      add\n      0x40\n      mstore\n      dup1\n      swap3\n      swap2\n      swap1\n      dup2\n      dup2\n      mstore\n      0x20\n      add\n      dup3\n      dup1\n      sload\n      tag_61\n      swap1\n      tag_35\n      jump\t// in\n    tag_61:\n      dup1\n      iszero\n      tag_62\n      jumpi\n      dup1\n      0x1f\n      lt\n      tag_63\n      jumpi\n      0x0100\n      dup1\n      dup4\n      sload\n      div\n      mul\n      dup4\n      mstore\n      swap2\n      0x20\n      add\n      swap2\n      jump(tag_62)\n    tag_63:\n      dup3\n      add\n      swap2\n      swap1\n      0x00\n      mstore\n      keccak256(0x00, 0x20)\n      swap1\n    tag_64:\n      dup2\n      sload\n      dup2\n      mstore\n      swap1\n      0x01\n      add\n      swap1\n      0x20\n      add\n      dup1\n      dup4\n      gt\n      tag_64\n      jumpi\n      dup3\n      swap1\n      sub\n      0x1f\n      and\n      dup3\n      add\n      swap2\n    tag_62:\n      pop\n      pop\n      pop\n      pop\n      pop\n      swap1\n      dup1\n      0x01\n      add\n      0x00\n      swap1\n      sload\n      swap1\n      0x0100\n      exp\n      swap1\n      div\n      0xffffffffffffffffffffffffffffffffffffffff\n      and\n      swap1\n      dup1\n      0x01\n      add\n      0x14\n      swap1\n      sload\n      swap1\n      0x0100\n      exp\n      swap1\n      div\n      0xff\n      and\n      swap1\n      pop\n      dup4\n      jump\t// out\n    tag_48:\n      dup3\n      dup1\n      sload\n      tag_65\n      swap1\n      tag_35\n      jump\t// in\n    tag_65:\n      swap1\n      0x00\n      mstore\n      keccak256(0x00, 0x20)\n      swap1\n      0x1f\n      add\n      0x20\n      swap1\n      div\n      dup2\n      add\n      swap3\n      dup3\n      tag_67\n      jumpi\n      0x00\n      dup6\n      sstore\n      jump(tag_66)\n    tag_67:\n      dup3\n      0x1f\n      lt\n      tag_68\n      jumpi\n      dup1\n      mload\n      not(0xff)\n      and\n      dup4\n      dup1\n      add\n      or\n      dup6\n      sstore\n      jump(tag_66)\n    tag_68:\n      dup3\n      dup1\n      add\n      0x01\n      add\n      dup6\n      sstore\n      dup3\n      iszero\n      tag_66\n      jumpi\n      swap2\n      dup3\n      add\n    tag_69:\n      dup3\n      dup2\n      gt\n      iszero\n      tag_70\n      jumpi\n      dup3\n      mload\n      dup3\n      sstore\n      swap2\n      0x20\n      add\n      swap2\n      swap1\n      0x01\n      add\n      swap1\n      jump(tag_69)\n    tag_70:\n    tag_66:\n      pop\n      swap1\n      pop\n      tag_71\n      swap2\n      swap1\n      tag_72\n      jump\t// in\n    tag_71:\n      pop\n      swap1\n      jump\t// out\n    tag_72:\n    tag_73:\n      dup1\n      dup3\n      gt\n      iszero\n      tag_74\n      jumpi\n      0x00\n      dup2\n      0x00\n      swap1\n      sstore\n      pop\n      0x01\n      add\n      jump(tag_73)\n    tag_74:\n      pop\n      swap1\n      jump\t// out\n        /* \"#utility.yul\":7:351   */\n    tag_76:\n      0x00\n        /* \"#utility.yul\":110:175   */\n      tag_78\n        /* \"#utility.yul\":125:174   */\n      tag_79\n        /* \"#utility.yul\":167:173   */\n      dup5\n        /* \"#utility.yul\":125:174   */\n      tag_80\n      jump\t// in\n    tag_79:\n        /* \"#utility.yul\":110:175   */\n      tag_81\n      jump\t// in\n    tag_78:\n        /* \"#utility.yul\":101:175   */\n      swap1\n      pop\n        /* \"#utility.yul\":198:204   */\n      dup3\n        /* \"#utility.yul\":191:196   */\n      dup2\n        /* \"#utility.yul\":184:205   */\n      mstore\n        /* \"#utility.yul\":236:240   */\n      0x20\n        /* \"#utility.yul\":229:234   */\n      dup2\n        /* \"#utility.yul\":225:241   */\n      add\n        /* \"#utility.yul\":274:277   */\n      dup5\n        /* \"#utility.yul\":265:271   */\n      dup5\n        /* \"#utility.yul\":260:263   */\n      dup5\n        /* \"#utility.yul\":256:272   */\n      add\n        /* \"#utility.yul\":253:278   */\n      gt\n        /* \"#utility.yul\":250:252   */\n      iszero\n      tag_82\n      jumpi\n        /* \"#utility.yul\":291:292   */\n      0x00\n        /* \"#utility.yul\":288:289   */\n      dup1\n        /* \"#utility.yul\":281:293   */\n      revert\n        /* \"#utility.yul\":250:252   */\n    tag_82:\n        /* \"#utility.yul\":304:345   */\n      tag_83\n        /* \"#utility.yul\":338:344   */\n      dup5\n        /* \"#utility.yul\":333:336   */\n      dup3\n        /* \"#utility.yul\":328:331   */\n      dup6\n        /* \"#utility.yul\":304:345   */\n      tag_84\n      jump\t// in\n    tag_83:\n        /* \"#utility.yul\":91:351   */\n      pop\n      swap4\n      swap3\n      pop\n      pop\n      pop\n      jump\t// out\n        /* \"#utility.yul\":357:496   */\n    tag_85:\n      0x00\n        /* \"#utility.yul\":441:447   */\n      dup2\n        /* \"#utility.yul\":428:448   */\n      calldataload\n        /* \"#utility.yul\":419:448   */\n      swap1\n      pop\n        /* \"#utility.yul\":457:490   */\n      tag_87\n        /* \"#utility.yul\":484:489   */\n      dup2\n        /* \"#utility.yul\":457:490   */\n      tag_88\n      jump\t// in\n    tag_87:\n        /* \"#utility.yul\":409:496   */\n      swap3\n      swap2\n      pop\n      pop\n      jump\t// out\n        /* \"#utility.yul\":516:789   */\n    tag_89:\n      0x00\n        /* \"#utility.yul\":621:624   */\n      dup3\n        /* \"#utility.yul\":614:618   */\n      0x1f\n        /* \"#utility.yul\":606:612   */\n      dup4\n        /* \"#utility.yul\":602:619   */\n      add\n        /* \"#utility.yul\":598:625   */\n      slt\n        /* \"#utility.yul\":588:590   */\n      tag_91\n      jumpi\n        /* \"#utility.yul\":639:640   */\n      0x00\n        /* \"#utility.yul\":636:637   */\n      dup1\n        /* \"#utility.yul\":629:641   */\n      revert\n        /* \"#utility.yul\":588:590   */\n    tag_91:\n        /* \"#utility.yul\":679:685   */\n      dup2\n        /* \"#utility.yul\":666:686   */\n      calldataload\n        /* \"#utility.yul\":704:783   */\n      tag_92\n        /* \"#utility.yul\":779:782   */\n      dup5\n        /* \"#utility.yul\":771:777   */\n      dup3\n        /* \"#utility.yul\":764:768   */\n      0x20\n        /* \"#utility.yul\":756:762   */\n      dup7\n        /* \"#utility.yul\":752:769   */\n      add\n        /* \"#utility.yul\":704:783   */\n      tag_76\n      jump\t// in\n    tag_92:\n        /* \"#utility.yul\":695:783   */\n      swap2\n      pop\n        /* \"#utility.yul\":578:789   */\n      pop\n      swap3\n      swap2\n      pop\n      pop\n      jump\t// out\n        /* \"#utility.yul\":795:1057   */\n    tag_11:\n      0x00\n        /* \"#utility.yul\":903:905   */\n      0x20\n        /* \"#utility.yul\":891:900   */\n      dup3\n        /* \"#utility.yul\":882:889   */\n      dup5\n        /* \"#utility.yul\":878:901   */\n      sub\n        /* \"#utility.yul\":874:906   */\n      slt\n        /* \"#utility.yul\":871:873   */\n      iszero\n      tag_94\n      jumpi\n        /* \"#utility.yul\":919:920   */\n      0x00\n        /* \"#utility.yul\":916:917   */\n      dup1\n        /* \"#utility.yul\":909:921   */\n      revert\n        /* \"#utility.yul\":871:873   */\n    tag_94:\n        /* \"#utility.yul\":962:963   */\n      0x00\n        /* \"#utility.yul\":987:1040   */\n      tag_95\n        /* \"#utility.yul\":1032:1039   */\n      dup5\n        /* \"#utility.yul\":1023:1029   */\n      dup3\n        /* \"#utility.yul\":1012:1021   */\n      dup6\n        /* \"#utility.yul\":1008:1030   */\n      add\n        /* \"#utility.yul\":987:1040   */\n      tag_85\n      jump\t// in\n    tag_95:\n        /* \"#utility.yul\":977:1040   */\n      swap2\n      pop\n        /* \"#utility.yul\":933:1050   */\n      pop\n        /* \"#utility.yul\":861:1057   */\n      swap3\n      swap2\n      pop\n      pop\n      jump\t// out\n        /* \"#utility.yul\":1063:1438   */\n    tag_17:\n      0x00\n        /* \"#utility.yul\":1181:1183   */\n      0x20\n        /* \"#utility.yul\":1169:1178   */\n      dup3\n        /* \"#utility.yul\":1160:1167   */\n      dup5\n        /* \"#utility.yul\":1156:1179   */\n      sub\n        /* \"#utility.yul\":1152:1184   */\n      slt\n        /* \"#utility.yul\":1149:1151   */\n      iszero\n      tag_97\n      jumpi\n        /* \"#utility.yul\":1197:1198   */\n      0x00\n        /* \"#utility.yul\":1194:1195   */\n      dup1\n        /* \"#utility.yul\":1187:1199   */\n      revert\n        /* \"#utility.yul\":1149:1151   */\n    tag_97:\n        /* \"#utility.yul\":1268:1269   */\n      0x00\n        /* \"#utility.yul\":1257:1266   */\n      dup3\n        /* \"#utility.yul\":1253:1270   */\n      add\n        /* \"#utility.yul\":1240:1271   */\n      calldataload\n        /* \"#utility.yul\":1298:1316   */\n      0xffffffffffffffff\n        /* \"#utility.yul\":1290:1296   */\n      dup2\n        /* \"#utility.yul\":1287:1317   */\n      gt\n        /* \"#utility.yul\":1284:1286   */\n      iszero\n      tag_98\n      jumpi\n        /* \"#utility.yul\":1330:1331   */\n      0x00\n        /* \"#utility.yul\":1327:1328   */\n      dup1\n        /* \"#utility.yul\":1320:1332   */\n      revert\n        /* \"#utility.yul\":1284:1286   */\n    tag_98:\n        /* \"#utility.yul\":1358:1421   */\n      tag_99\n        /* \"#utility.yul\":1413:1420   */\n      dup5\n        /* \"#utility.yul\":1404:1410   */\n      dup3\n        /* \"#utility.yul\":1393:1402   */\n      dup6\n        /* \"#utility.yul\":1389:1411   */\n      add\n        /* \"#utility.yul\":1358:1421   */\n      tag_89\n      jump\t// in\n    tag_99:\n        /* \"#utility.yul\":1348:1421   */\n      swap2\n      pop\n        /* \"#utility.yul\":1211:1431   */\n      pop\n        /* \"#utility.yul\":1139:1438   */\n      swap3\n      swap2\n      pop\n      pop\n      jump\t// out\n        /* \"#utility.yul\":1444:1562   */\n    tag_100:\n        /* \"#utility.yul\":1531:1555   */\n      tag_102\n        /* \"#utility.yul\":1549:1554   */\n      dup2\n        /* \"#utility.yul\":1531:1555   */\n      tag_103\n      jump\t// in\n    tag_102:\n        /* \"#utility.yul\":1526:1529   */\n      dup3\n        /* \"#utility.yul\":1519:1556   */\n      mstore\n        /* \"#utility.yul\":1509:1562   */\n      pop\n      pop\n      jump\t// out\n        /* \"#utility.yul\":1568:1677   */\n    tag_104:\n        /* \"#utility.yul\":1649:1670   */\n      tag_106\n        /* \"#utility.yul\":1664:1669   */\n      dup2\n        /* \"#utility.yul\":1649:1670   */\n      tag_107\n      jump\t// in\n    tag_106:\n        /* \"#utility.yul\":1644:1647   */\n      dup3\n        /* \"#utility.yul\":1637:1671   */\n      mstore\n        /* \"#utility.yul\":1627:1677   */\n      pop\n      pop\n      jump\t// out\n        /* \"#utility.yul\":1683:2047   */\n    tag_108:\n      0x00\n        /* \"#utility.yul\":1799:1838   */\n      tag_110\n        /* \"#utility.yul\":1832:1837   */\n      dup3\n        /* \"#utility.yul\":1799:1838   */\n      tag_111\n      jump\t// in\n    tag_110:\n        /* \"#utility.yul\":1854:1925   */\n      tag_112\n        /* \"#utility.yul\":1918:1924   */\n      dup2\n        /* \"#utility.yul\":1913:1916   */\n      dup6\n        /* \"#utility.yul\":1854:1925   */\n      tag_113\n      jump\t// in\n    tag_112:\n        /* \"#utility.yul\":1847:1925   */\n      swap4\n      pop\n        /* \"#utility.yul\":1934:1986   */\n      tag_114\n        /* \"#utility.yul\":1979:1985   */\n      dup2\n        /* \"#utility.yul\":1974:1977   */\n      dup6\n        /* \"#utility.yul\":1967:1971   */\n      0x20\n        /* \"#utility.yul\":1960:1965   */\n      dup7\n        /* \"#utility.yul\":1956:1972   */\n      add\n        /* \"#utility.yul\":1934:1986   */\n      tag_115\n      jump\t// in\n    tag_114:\n        /* \"#utility.yul\":2011:2040   */\n      tag_116\n        /* \"#utility.yul\":2033:2039   */\n      dup2\n        /* \"#utility.yul\":2011:2040   */\n      tag_117\n      jump\t// in\n    tag_116:\n        /* \"#utility.yul\":2006:2009   */\n      dup5\n        /* \"#utility.yul\":2002:2041   */\n      add\n        /* \"#utility.yul\":1995:2041   */\n      swap2\n      pop\n        /* \"#utility.yul\":1775:2047   */\n      pop\n      swap3\n      swap2\n      pop\n      pop\n      jump\t// out\n        /* \"#utility.yul\":2053:2371   */\n    tag_118:\n      0x00\n        /* \"#utility.yul\":2216:2283   */\n      tag_120\n        /* \"#utility.yul\":2280:2282   */\n      0x14\n        /* \"#utility.yul\":2275:2278   */\n      dup4\n        /* \"#utility.yul\":2216:2283   */\n      tag_113\n      jump\t// in\n    tag_120:\n        /* \"#utility.yul\":2209:2283   */\n      swap2\n      pop\n        /* \"#utility.yul\":2313:2335   */\n      0x4e616d652063616e6e6f7420626520656d707479000000000000000000000000\n        /* \"#utility.yul\":2309:2310   */\n      0x00\n        /* \"#utility.yul\":2304:2307   */\n      dup4\n        /* \"#utility.yul\":2300:2311   */\n      add\n        /* \"#utility.yul\":2293:2336   */\n      mstore\n        /* \"#utility.yul\":2362:2364   */\n      0x20\n        /* \"#utility.yul\":2357:2360   */\n      dup3\n        /* \"#utility.yul\":2353:2365   */\n      add\n        /* \"#utility.yul\":2346:2365   */\n      swap1\n      pop\n        /* \"#utility.yul\":2199:2371   */\n      swap2\n      swap1\n      pop\n      jump\t// out\n        /* \"#utility.yul\":2377:2761   */\n    tag_121:\n      0x00\n        /* \"#utility.yul\":2540:2607   */\n      tag_123\n        /* \"#utility.yul\":2604:2606   */\n      0x34\n        /* \"#utility.yul\":2599:2602   */\n      dup4\n        /* \"#utility.yul\":2540:2607   */\n      tag_113\n      jump\t// in\n    tag_123:\n        /* \"#utility.yul\":2533:2607   */\n      swap2\n      pop\n        /* \"#utility.yul\":2637:2671   */\n      0x4f6e6c7920746865206f776e6572206f7220636f6e7472616374206f776e6572\n        /* \"#utility.yul\":2633:2634   */\n      0x00\n        /* \"#utility.yul\":2628:2631   */\n      dup4\n        /* \"#utility.yul\":2624:2635   */\n      add\n        /* \"#utility.yul\":2617:2672   */\n      mstore\n        /* \"#utility.yul\":2703:2725   */\n      0x2063616e20766572696679206964656e74697479000000000000000000000000\n        /* \"#utility.yul\":2698:2700   */\n      0x20\n        /* \"#utility.yul\":2693:2696   */\n      dup4\n        /* \"#utility.yul\":2689:2701   */\n      add\n        /* \"#utility.yul\":2682:2726   */\n      mstore\n        /* \"#utility.yul\":2752:2754   */\n      0x40\n        /* \"#utility.yul\":2747:2750   */\n      dup3\n        /* \"#utility.yul\":2743:2755   */\n      add\n        /* \"#utility.yul\":2736:2755   */\n      swap1\n      pop\n        /* \"#utility.yul\":2523:2761   */\n      swap2\n      swap1\n      pop\n      jump\t// out\n        /* \"#utility.yul\":2767:3088   */\n    tag_124:\n      0x00\n        /* \"#utility.yul\":2930:2997   */\n      tag_126\n        /* \"#utility.yul\":2994:2996   */\n      0x17\n        /* \"#utility.yul\":2989:2992   */\n      dup4\n        /* \"#utility.yul\":2930:2997   */\n      tag_113\n      jump\t// in\n    tag_126:\n        /* \"#utility.yul\":2923:2997   */\n      swap2\n      pop\n        /* \"#utility.yul\":3027:3052   */\n      0x4964656e7469747920646f6573206e6f74206578697374000000000000000000\n        /* \"#utility.yul\":3023:3024   */\n      0x00\n        /* \"#utility.yul\":3018:3021   */\n      dup4\n        /* \"#utility.yul\":3014:3025   */\n      add\n        /* \"#utility.yul\":3007:3053   */\n      mstore\n        /* \"#utility.yul\":3079:3081   */\n      0x20\n        /* \"#utility.yul\":3074:3077   */\n      dup3\n        /* \"#utility.yul\":3070:3082   */\n      add\n        /* \"#utility.yul\":3063:3082   */\n      swap1\n      pop\n        /* \"#utility.yul\":2913:3088   */\n      swap2\n      swap1\n      pop\n      jump\t// out\n        /* \"#utility.yul\":3094:3415   */\n    tag_127:\n      0x00\n        /* \"#utility.yul\":3257:3324   */\n      tag_129\n        /* \"#utility.yul\":3321:3323   */\n      0x17\n        /* \"#utility.yul\":3316:3319   */\n      dup4\n        /* \"#utility.yul\":3257:3324   */\n      tag_113\n      jump\t// in\n    tag_129:\n        /* \"#utility.yul\":3250:3324   */\n      swap2\n      pop\n        /* \"#utility.yul\":3354:3379   */\n      0x4964656e7469747920616c726561647920657869737473000000000000000000\n        /* \"#utility.yul\":3350:3351   */\n      0x00\n        /* \"#utility.yul\":3345:3348   */\n      dup4\n        /* \"#utility.yul\":3341:3352   */\n      add\n        /* \"#utility.yul\":3334:3380   */\n      mstore\n        /* \"#utility.yul\":3406:3408   */\n      0x20\n        /* \"#utility.yul\":3401:3404   */\n      dup3\n        /* \"#utility.yul\":3397:3409   */\n      add\n        /* \"#utility.yul\":3390:3409   */\n      swap1\n      pop\n        /* \"#utility.yul\":3240:3415   */\n      swap2\n      swap1\n      pop\n      jump\t// out\n        /* \"#utility.yul\":3421:3643   */\n    tag_22:\n      0x00\n        /* \"#utility.yul\":3552:3554   */\n      0x20\n        /* \"#utility.yul\":3541:3550   */\n      dup3\n        /* \"#utility.yul\":3537:3555   */\n      add\n        /* \"#utility.yul\":3529:3555   */\n      swap1\n      pop\n        /* \"#utility.yul\":3565:3636   */\n      tag_131\n        /* \"#utility.yul\":3633:3634   */\n      0x00\n        /* \"#utility.yul\":3622:3631   */\n      dup4\n        /* \"#utility.yul\":3618:3635   */\n      add\n        /* \"#utility.yul\":3609:3615   */\n      dup5\n        /* \"#utility.yul\":3565:3636   */\n      tag_100\n      jump\t// in\n    tag_131:\n        /* \"#utility.yul\":3519:3643   */\n      swap3\n      swap2\n      pop\n      pop\n      jump\t// out\n        /* \"#utility.yul\":3649:3962   */\n    tag_50:\n      0x00\n        /* \"#utility.yul\":3800:3802   */\n      0x20\n        /* \"#utility.yul\":3789:3798   */\n      dup3\n        /* \"#utility.yul\":3785:3803   */\n      add\n        /* \"#utility.yul\":3777:3803   */\n      swap1\n      pop\n        /* \"#utility.yul\":3849:3858   */\n      dup2\n        /* \"#utility.yul\":3843:3847   */\n      dup2\n        /* \"#utility.yul\":3839:3859   */\n      sub\n        /* \"#utility.yul\":3835:3836   */\n      0x00\n        /* \"#utility.yul\":3824:3833   */\n      dup4\n        /* \"#utility.yul\":3820:3837   */\n      add\n        /* \"#utility.yul\":3813:3860   */\n      mstore\n        /* \"#utility.yul\":3877:3955   */\n      tag_133\n        /* \"#utility.yul\":3950:3954   */\n      dup2\n        /* \"#utility.yul\":3941:3947   */\n      dup5\n        /* \"#utility.yul\":3877:3955   */\n      tag_108\n      jump\t// in\n    tag_133:\n        /* \"#utility.yul\":3869:3955   */\n      swap1\n      pop\n        /* \"#utility.yul\":3767:3962   */\n      swap3\n      swap2\n      pop\n      pop\n      jump\t// out\n        /* \"#utility.yul\":3968:4489   */\n    tag_14:\n      0x00\n        /* \"#utility.yul\":4169:4171   */\n      0x60\n        /* \"#utility.yul\":4158:4167   */\n      dup3\n        /* \"#utility.yul\":4154:4172   */\n      add\n        /* \"#utility.yul\":4146:4172   */\n      swap1\n      pop\n        /* \"#utility.yul\":4218:4227   */\n      dup2\n        /* \"#utility.yul\":4212:4216   */\n      dup2\n        /* \"#utility.yul\":4208:4228   */\n      sub\n        /* \"#utility.yul\":4204:4205   */\n      0x00\n        /* \"#utility.yul\":4193:4202   */\n      dup4\n        /* \"#utility.yul\":4189:4206   */\n      add\n        /* \"#utility.yul\":4182:4229   */\n      mstore\n        /* \"#utility.yul\":4246:4324   */\n      tag_135\n        /* \"#utility.yul\":4319:4323   */\n      dup2\n        /* \"#utility.yul\":4310:4316   */\n      dup7\n        /* \"#utility.yul\":4246:4324   */\n      tag_108\n      jump\t// in\n    tag_135:\n        /* \"#utility.yul\":4238:4324   */\n      swap1\n      pop\n        /* \"#utility.yul\":4334:4406   */\n      tag_136\n        /* \"#utility.yul\":4402:4404   */\n      0x20\n        /* \"#utility.yul\":4391:4400   */\n      dup4\n        /* \"#utility.yul\":4387:4405   */\n      add\n        /* \"#utility.yul\":4378:4384   */\n      dup6\n        /* \"#utility.yul\":4334:4406   */\n      tag_100\n      jump\t// in\n    tag_136:\n        /* \"#utility.yul\":4416:4482   */\n      tag_137\n        /* \"#utility.yul\":4478:4480   */\n      0x40\n        /* \"#utility.yul\":4467:4476   */\n      dup4\n        /* \"#utility.yul\":4463:4481   */\n      add\n        /* \"#utility.yul\":4454:4460   */\n      dup5\n        /* \"#utility.yul\":4416:4482   */\n      tag_104\n      jump\t// in\n    tag_137:\n        /* \"#utility.yul\":4136:4489   */\n      swap5\n      swap4\n      pop\n      pop\n      pop\n      pop\n      jump\t// out\n        /* \"#utility.yul\":4495:4914   */\n    tag_43:\n      0x00\n        /* \"#utility.yul\":4699:4701   */\n      0x20\n        /* \"#utility.yul\":4688:4697   */\n      dup3\n        /* \"#utility.yul\":4684:4702   */\n      add\n        /* \"#utility.yul\":4676:4702   */\n      swap1\n      pop\n        /* \"#utility.yul\":4748:4757   */\n      dup2\n        /* \"#utility.yul\":4742:4746   */\n      dup2\n        /* \"#utility.yul\":4738:4758   */\n      sub\n        /* \"#utility.yul\":4734:4735   */\n      0x00\n        /* \"#utility.yul\":4723:4732   */\n      dup4\n        /* \"#utility.yul\":4719:4736   */\n      add\n        /* \"#utility.yul\":4712:4759   */\n      mstore\n        /* \"#utility.yul\":4776:4907   */\n      tag_139\n        /* \"#utility.yul\":4902:4906   */\n      dup2\n        /* \"#utility.yul\":4776:4907   */\n      tag_118\n      jump\t// in\n    tag_139:\n        /* \"#utility.yul\":4768:4907   */\n      swap1\n      pop\n        /* \"#utility.yul\":4666:4914   */\n      swap2\n      swap1\n      pop\n      jump\t// out\n        /* \"#utility.yul\":4920:5339   */\n    tag_56:\n      0x00\n        /* \"#utility.yul\":5124:5126   */\n      0x20\n        /* \"#utility.yul\":5113:5122   */\n      dup3\n        /* \"#utility.yul\":5109:5127   */\n      add\n        /* \"#utility.yul\":5101:5127   */\n      swap1\n      pop\n        /* \"#utility.yul\":5173:5182   */\n      dup2\n        /* \"#utility.yul\":5167:5171   */\n      dup2\n        /* \"#utility.yul\":5163:5183   */\n      sub\n        /* \"#utility.yul\":5159:5160   */\n      0x00\n        /* \"#utility.yul\":5148:5157   */\n      dup4\n        /* \"#utility.yul\":5144:5161   */\n      add\n        /* \"#utility.yul\":5137:5184   */\n      mstore\n        /* \"#utility.yul\":5201:5332   */\n      tag_141\n        /* \"#utility.yul\":5327:5331   */\n      dup2\n        /* \"#utility.yul\":5201:5332   */\n      tag_121\n      jump\t// in\n    tag_141:\n        /* \"#utility.yul\":5193:5332   */\n      swap1\n      pop\n        /* \"#utility.yul\":5091:5339   */\n      swap2\n      swap1\n      pop\n      jump\t// out\n        /* \"#utility.yul\":5345:5764   */\n    tag_59:\n      0x00\n        /* \"#utility.yul\":5549:5551   */\n      0x20\n        /* \"#utility.yul\":5538:5547   */\n      dup3\n        /* \"#utility.yul\":5534:5552   */\n      add\n        /* \"#utility.yul\":5526:5552   */\n      swap1\n      pop\n        /* \"#utility.yul\":5598:5607   */\n      dup2\n        /* \"#utility.yul\":5592:5596   */\n      dup2\n        /* \"#utility.yul\":5588:5608   */\n      sub\n        /* \"#utility.yul\":5584:5585   */\n      0x00\n        /* \"#utility.yul\":5573:5582   */\n      dup4\n        /* \"#utility.yul\":5569:5586   */\n      add\n        /* \"#utility.yul\":5562:5609   */\n      mstore\n        /* \"#utility.yul\":5626:5757   */\n      tag_143\n        /* \"#utility.yul\":5752:5756   */\n      dup2\n        /* \"#utility.yul\":5626:5757   */\n      tag_124\n      jump\t// in\n    tag_143:\n        /* \"#utility.yul\":5618:5757   */\n      swap1\n      pop\n        /* \"#utility.yul\":5516:5764   */\n      swap2\n      swap1\n      pop\n      jump\t// out\n        /* \"#utility.yul\":5770:6189   */\n    tag_46:\n      0x00\n        /* \"#utility.yul\":5974:5976   */\n      0x20\n        /* \"#utility.yul\":5963:5972   */\n      dup3\n        /* \"#utility.yul\":5959:5977   */\n      add\n        /* \"#utility.yul\":5951:5977   */\n      swap1\n      pop\n        /* \"#utility.yul\":6023:6032   */\n      dup2\n        /* \"#utility.yul\":6017:6021   */\n      dup2\n        /* \"#utility.yul\":6013:6033   */\n      sub\n        /* \"#utility.yul\":6009:6010   */\n      0x00\n        /* \"#utility.yul\":5998:6007   */\n      dup4\n        /* \"#utility.yul\":5994:6011   */\n      add\n        /* \"#utility.yul\":5987:6034   */\n      mstore\n        /* \"#utility.yul\":6051:6182   */\n      tag_145\n        /* \"#utility.yul\":6177:6181   */\n      dup2\n        /* \"#utility.yul\":6051:6182   */\n      tag_127\n      jump\t// in\n    tag_145:\n        /* \"#utility.yul\":6043:6182   */\n      swap1\n      pop\n        /* \"#utility.yul\":5941:6189   */\n      swap2\n      swap1\n      pop\n      jump\t// out\n        /* \"#utility.yul\":6195:6478   */\n    tag_81:\n      0x00\n        /* \"#utility.yul\":6261:6263   */\n      0x40\n        /* \"#utility.yul\":6255:6264   */\n      mload\n        /* \"#utility.yul\":6245:6264   */\n      swap1\n      pop\n        /* \"#utility.yul\":6303:6307   */\n      dup2\n        /* \"#utility.yul\":6295:6301   */\n      dup2\n        /* \"#utility.yul\":6291:6308   */\n      add\n        /* \"#utility.yul\":6410:6416   */\n      dup2\n        /* \"#utility.yul\":6398:6408   */\n      dup2\n        /* \"#utility.yul\":6395:6417   */\n      lt\n        /* \"#utility.yul\":6374:6392   */\n      0xffffffffffffffff\n        /* \"#utility.yul\":6362:6372   */\n      dup3\n        /* \"#utility.yul\":6359:6393   */\n      gt\n        /* \"#utility.yul\":6356:6418   */\n      or\n        /* \"#utility.yul\":6353:6355   */\n      iszero\n      tag_147\n      jumpi\n        /* \"#utility.yul\":6421:6439   */\n      tag_148\n      tag_149\n      jump\t// in\n    tag_148:\n        /* \"#utility.yul\":6353:6355   */\n    tag_147:\n        /* \"#utility.yul\":6461:6471   */\n      dup1\n        /* \"#utility.yul\":6457:6459   */\n      0x40\n        /* \"#utility.yul\":6450:6472   */\n      mstore\n        /* \"#utility.yul\":6235:6478   */\n      pop\n      swap2\n      swap1\n      pop\n      jump\t// out\n        /* \"#utility.yul\":6484:6816   */\n    tag_80:\n      0x00\n        /* \"#utility.yul\":6636:6654   */\n      0xffffffffffffffff\n        /* \"#utility.yul\":6628:6634   */\n      dup3\n        /* \"#utility.yul\":6625:6655   */\n      gt\n        /* \"#utility.yul\":6622:6624   */\n      iszero\n      tag_151\n      jumpi\n        /* \"#utility.yul\":6658:6676   */\n      tag_152\n      tag_149\n      jump\t// in\n    tag_152:\n        /* \"#utility.yul\":6622:6624   */\n    tag_151:\n        /* \"#utility.yul\":6743:6747   */\n      0x1f\n        /* \"#utility.yul\":6739:6748   */\n      not\n        /* \"#utility.yul\":6732:6736   */\n      0x1f\n        /* \"#utility.yul\":6724:6730   */\n      dup4\n        /* \"#utility.yul\":6720:6737   */\n      add\n        /* \"#utility.yul\":6716:6749   */\n      and\n        /* \"#utility.yul\":6708:6749   */\n      swap1\n      pop\n        /* \"#utility.yul\":6804:6808   */\n      0x20\n        /* \"#utility.yul\":6798:6802   */\n      dup2\n        /* \"#utility.yul\":6794:6809   */\n      add\n        /* \"#utility.yul\":6786:6809   */\n      swap1\n      pop\n        /* \"#utility.yul\":6551:6816   */\n      swap2\n      swap1\n      pop\n      jump\t// out\n        /* \"#utility.yul\":6822:6921   */\n    tag_111:\n      0x00\n        /* \"#utility.yul\":6908:6913   */\n      dup2\n        /* \"#utility.yul\":6902:6914   */\n      mload\n        /* \"#utility.yul\":6892:6914   */\n      swap1\n      pop\n        /* \"#utility.yul\":6881:6921   */\n      swap2\n      swap1\n      pop\n      jump\t// out\n        /* \"#utility.yul\":6927:7096   */\n    tag_113:\n      0x00\n        /* \"#utility.yul\":7045:7051   */\n      dup3\n        /* \"#utility.yul\":7040:7043   */\n      dup3\n        /* \"#utility.yul\":7033:7052   */\n      mstore\n        /* \"#utility.yul\":7085:7089   */\n      0x20\n        /* \"#utility.yul\":7080:7083   */\n      dup3\n        /* \"#utility.yul\":7076:7090   */\n      add\n        /* \"#utility.yul\":7061:7090   */\n      swap1\n      pop\n        /* \"#utility.yul\":7023:7096   */\n      swap3\n      swap2\n      pop\n      pop\n      jump\t// out\n        /* \"#utility.yul\":7102:7198   */\n    tag_103:\n      0x00\n        /* \"#utility.yul\":7168:7192   */\n      tag_156\n        /* \"#utility.yul\":7186:7191   */\n      dup3\n        /* \"#utility.yul\":7168:7192   */\n      tag_157\n      jump\t// in\n    tag_156:\n        /* \"#utility.yul\":7157:7192   */\n      swap1\n      pop\n        /* \"#utility.yul\":7147:7198   */\n      swap2\n      swap1\n      pop\n      jump\t// out\n        /* \"#utility.yul\":7204:7294   */\n    tag_107:\n      0x00\n        /* \"#utility.yul\":7281:7286   */\n      dup2\n        /* \"#utility.yul\":7274:7287   */\n      iszero\n        /* \"#utility.yul\":7267:7288   */\n      iszero\n        /* \"#utility.yul\":7256:7288   */\n      swap1\n      pop\n        /* \"#utility.yul\":7246:7294   */\n      swap2\n      swap1\n      pop\n      jump\t// out\n        /* \"#utility.yul\":7300:7426   */\n    tag_157:\n      0x00\n        /* \"#utility.yul\":7377:7419   */\n      0xffffffffffffffffffffffffffffffffffffffff\n        /* \"#utility.yul\":7370:7375   */\n      dup3\n        /* \"#utility.yul\":7366:7420   */\n      and\n        /* \"#utility.yul\":7355:7420   */\n      swap1\n      pop\n        /* \"#utility.yul\":7345:7426   */\n      swap2\n      swap1\n      pop\n      jump\t// out\n        /* \"#utility.yul\":7432:7586   */\n    tag_84:\n        /* \"#utility.yul\":7516:7522   */\n      dup3\n        /* \"#utility.yul\":7511:7514   */\n      dup2\n        /* \"#utility.yul\":7506:7509   */\n      dup4\n        /* \"#utility.yul\":7493:7523   */\n      calldatacopy\n        /* \"#utility.yul\":7578:7579   */\n      0x00\n        /* \"#utility.yul\":7569:7575   */\n      dup4\n        /* \"#utility.yul\":7564:7567   */\n      dup4\n        /* \"#utility.yul\":7560:7576   */\n      add\n        /* \"#utility.yul\":7553:7580   */\n      mstore\n        /* \"#utility.yul\":7483:7586   */\n      pop\n      pop\n      pop\n      jump\t// out\n        /* \"#utility.yul\":7592:7899   */\n    tag_115:\n        /* \"#utility.yul\":7660:7661   */\n      0x00\n        /* \"#utility.yul\":7670:7783   */\n    tag_162:\n        /* \"#utility.yul\":7684:7690   */\n      dup4\n        /* \"#utility.yul\":7681:7682   */\n      dup2\n        /* \"#utility.yul\":7678:7691   */\n      lt\n        /* \"#utility.yul\":7670:7783   */\n      iszero\n      tag_164\n      jumpi\n        /* \"#utility.yul\":7769:7770   */\n      dup1\n        /* \"#utility.yul\":7764:7767   */\n      dup3\n        /* \"#utility.yul\":7760:7771   */\n      add\n        /* \"#utility.yul\":7754:7772   */\n      mload\n        /* \"#utility.yul\":7750:7751   */\n      dup2\n        /* \"#utility.yul\":7745:7748   */\n      dup5\n        /* \"#utility.yul\":7741:7752   */\n      add\n        /* \"#utility.yul\":7734:7773   */\n      mstore\n        /* \"#utility.yul\":7706:7708   */\n      0x20\n        /* \"#utility.yul\":7703:7704   */\n      dup2\n        /* \"#utility.yul\":7699:7709   */\n      add\n        /* \"#utility.yul\":7694:7709   */\n      swap1\n      pop\n        /* \"#utility.yul\":7670:7783   */\n      jump(tag_162)\n    tag_164:\n        /* \"#utility.yul\":7801:7807   */\n      dup4\n        /* \"#utility.yul\":7798:7799   */\n      dup2\n        /* \"#utility.yul\":7795:7808   */\n      gt\n        /* \"#utility.yul\":7792:7794   */\n      iszero\n      tag_165\n      jumpi\n        /* \"#utility.yul\":7881:7882   */\n      0x00\n        /* \"#utility.yul\":7872:7878   */\n      dup5\n        /* \"#utility.yul\":7867:7870   */\n      dup5\n        /* \"#utility.yul\":7863:7879   */\n      add\n        /* \"#utility.yul\":7856:7883   */\n      mstore\n        /* \"#utility.yul\":7792:7794   */\n    tag_165:\n        /* \"#utility.yul\":7641:7899   */\n      pop\n      pop\n      pop\n      pop\n      jump\t// out\n        /* \"#utility.yul\":7905:8225   */\n    tag_35:\n      0x00\n        /* \"#utility.yul\":7986:7987   */\n      0x02\n        /* \"#utility.yul\":7980:7984   */\n      dup3\n        /* \"#utility.yul\":7976:7988   */\n      div\n        /* \"#utility.yul\":7966:7988   */\n      swap1\n      pop\n        /* \"#utility.yul\":8033:8034   */\n      0x01\n        /* \"#utility.yul\":8027:8031   */\n      dup3\n        /* \"#utility.yul\":8023:8035   */\n      and\n        /* \"#utility.yul\":8054:8072   */\n      dup1\n        /* \"#utility.yul\":8044:8046   */\n      tag_167\n      jumpi\n        /* \"#utility.yul\":8110:8114   */\n      0x7f\n        /* \"#utility.yul\":8102:8108   */\n      dup3\n        /* \"#utility.yul\":8098:8115   */\n      and\n        /* \"#utility.yul\":8088:8115   */\n      swap2\n      pop\n        /* \"#utility.yul\":8044:8046   */\n    tag_167:\n        /* \"#utility.yul\":8172:8174   */\n      0x20\n        /* \"#utility.yul\":8164:8170   */\n      dup3\n        /* \"#utility.yul\":8161:8175   */\n      lt\n        /* \"#utility.yul\":8141:8159   */\n      dup2\n        /* \"#utility.yul\":8138:8176   */\n      eq\n        /* \"#utility.yul\":8135:8137   */\n      iszero\n      tag_168\n      jumpi\n        /* \"#utility.yul\":8191:8209   */\n      tag_169\n      tag_170\n      jump\t// in\n    tag_169:\n        /* \"#utility.yul\":8135:8137   */\n    tag_168:\n        /* \"#utility.yul\":7956:8225   */\n      pop\n      swap2\n      swap1\n      pop\n      jump\t// out\n        /* \"#utility.yul\":8231:8411   */\n    tag_170:\n        /* \"#utility.yul\":8279:8356   */\n      0x4e487b7100000000000000000000000000000000000000000000000000000000\n        /* \"#utility.yul\":8276:8277   */\n      0x00\n        /* \"#utility.yul\":8269:8357   */\n      mstore\n        /* \"#utility.yul\":8376:8380   */\n      0x22\n        /* \"#utility.yul\":8373:8374   */\n      0x04\n        /* \"#utility.yul\":8366:8381   */\n      mstore\n        /* \"#utility.yul\":8400:8404   */\n      0x24\n        /* \"#utility.yul\":8397:8398   */\n      0x00\n        /* \"#utility.yul\":8390:8405   */\n      revert\n        /* \"#utility.yul\":8417:8597   */\n    tag_149:\n        /* \"#utility.yul\":8465:8542   */\n      0x4e487b7100000000000000000000000000000000000000000000000000000000\n        /* \"#utility.yul\":8462:8463   */\n      0x00\n        /* \"#utility.yul\":8455:8543   */\n      mstore\n        /* \"#utility.yul\":8562:8566   */\n      0x41\n        /* \"#utility.yul\":8559:8560   */\n      0x04\n        /* \"#utility.yul\":8552:8567   */\n      mstore\n        /* \"#utility.yul\":8586:8590   */\n      0x24\n        /* \"#utility.yul\":8583:8584   */\n      0x00\n        /* \"#utility.yul\":8576:8591   */\n      revert\n        /* \"#utility.yul\":8603:8705   */\n    tag_117:\n      0x00\n        /* \"#utility.yul\":8695:8697   */\n      0x1f\n        /* \"#utility.yul\":8691:8698   */\n      not\n        /* \"#utility.yul\":8686:8688   */\n      0x1f\n        /* \"#utility.yul\":8679:8684   */\n      dup4\n        /* \"#utility.yul\":8675:8689   */\n      add\n        /* \"#utility.yul\":8671:8699   */\n      and\n        /* \"#utility.yul\":8661:8699   */\n      swap1\n      pop\n        /* \"#utility.yul\":8651:8705   */\n      swap2\n      swap1\n      pop\n      jump\t// out\n        /* \"#utility.yul\":8711:8833   */\n    tag_88:\n        /* \"#utility.yul\":8784:8808   */\n      tag_175\n        /* \"#utility.yul\":8802:8807   */\n      dup2\n        /* \"#utility.yul\":8784:8808   */\n      tag_103\n      jump\t// in\n    tag_175:\n        /* \"#utility.yul\":8777:8782   */\n      dup2\n        /* \"#utility.yul\":8774:8809   */\n      eq\n        /* \"#utility.yul\":8764:8766   */\n      tag_176\n      jumpi\n        /* \"#utility.yul\":8823:8824   */\n      0x00\n        /* \"#utility.yul\":8820:8821   */\n      dup1\n        /* \"#utility.yul\":8813:8825   */\n      revert\n        /* \"#utility.yul\":8764:8766   */\n    tag_176:\n        /* \"#utility.yul\":8754:8833   */\n      pop\n      jump\t// out\n\n    auxdata: 0xa2646970667358221220edaa6706d6203555a44373d4de35a97ea4e617a5cf402d409585eb8e9651b31e64736f6c63430008000033\n}\n",
				"bytecode": {
					"linkReferences": {},
					"object": "608060405234801561001057600080fd5b5033600160006101000a81548173ffffffffffffffffffffffffffffffffffffffff021916908373ffffffffffffffffffffffffffffffffffffffff160217905550610e62806100616000396000f3fe608060405234801561001057600080fd5b50600436106100625760003560e01c80632fea7b811461006757806342ade78414610099578063442890d5146100b5578063b5b90fd9146100d3578063ce606ee0146100ef578063f653b81e1461010d575b600080fd5b610081600480360381019061007c9190610995565b61013f565b60405161009093929190610bb9565b60405180910390f35b6100b360048036038101906100ae91906109be565b6102b1565b005b6100bd61050f565b6040516100ca9190610b7c565b60405180910390f35b6100ed60048036038101906100e89190610995565b610539565b005b6100f7610770565b6040516101049190610b7c565b60405180910390f35b61012760048036038101906101229190610995565b610796565b60405161013693929190610bb9565b60405180910390f35b606060008060008060008673ffffffffffffffffffffffffffffffffffffffff1673ffffffffffffffffffffffffffffffffffffffff16815260200190815260200160002060405180606001604052908160008201805461019f90610d74565b80601f01602080910402602001604051908101604052809291908181526020018280546101cb90610d74565b80156102185780601f106101ed57610100808354040283529160200191610218565b820191906000526020600020905b8154815290600101906020018083116101fb57829003601f168201915b505050505081526020016001820160009054906101000a900473ffffffffffffffffffffffffffffffffffffffff1673ffffffffffffffffffffffffffffffffffffffff1673ffffffffffffffffffffffffffffffffffffffff1681526020016001820160149054906101000a900460ff1615151515815250509050806000015181602001518260400151935093509350509193909250565b60008151116102f5576040517f08c379a00000000000000000000000000000000000000000000000000000000081526004016102ec90610bf7565b60405180910390fd5b600073ffffffffffffffffffffffffffffffffffffffff166000803373ffffffffffffffffffffffffffffffffffffffff1673ffffffffffffffffffffffffffffffffffffffff16815260200190815260200160002060010160009054906101000a900473ffffffffffffffffffffffffffffffffffffffff1673ffffffffffffffffffffffffffffffffffffffff16146103c5576040517f08c379a00000000000000000000000000000000000000000000000000000000081526004016103bc90610c57565b60405180910390fd5b60405180606001604052808281526020013373ffffffffffffffffffffffffffffffffffffffff168152602001600015158152506000803373ffffffffffffffffffffffffffffffffffffffff1673ffffffffffffffffffffffffffffffffffffffff1681526020019081526020016000206000820151816000019080519060200190610453929190610875565b5060208201518160010160006101000a81548173ffffffffffffffffffffffffffffffffffffffff021916908373ffffffffffffffffffffffffffffffffffffffff16021790555060408201518160010160146101000a81548160ff0219169083151502179055509050503373ffffffffffffffffffffffffffffffffffffffff167fc935904fde3b784f003631fba58f14c99e3135ec5e11d22997ff5aca198f9474826040516105049190610b97565b60405180910390a250565b6000600160009054906101000a900473ffffffffffffffffffffffffffffffffffffffff16905090565b8073ffffffffffffffffffffffffffffffffffffffff163373ffffffffffffffffffffffffffffffffffffffff1614806105c05750600160009054906101000a900473ffffffffffffffffffffffffffffffffffffffff1673ffffffffffffffffffffffffffffffffffffffff163373ffffffffffffffffffffffffffffffffffffffff16145b6105ff576040517f08c379a00000000000000000000000000000000000000000000000000000000081526004016105f690610c17565b60405180910390fd5b600073ffffffffffffffffffffffffffffffffffffffff166000808373ffffffffffffffffffffffffffffffffffffffff1673ffffffffffffffffffffffffffffffffffffffff16815260200190815260200160002060010160009054906101000a900473ffffffffffffffffffffffffffffffffffffffff1673ffffffffffffffffffffffffffffffffffffffff1614156106d0576040517f08c379a00000000000000000000000000000000000000000000000000000000081526004016106c790610c37565b60405180910390fd5b60016000808373ffffffffffffffffffffffffffffffffffffffff1673ffffffffffffffffffffffffffffffffffffffff16815260200190815260200160002060010160146101000a81548160ff0219169083151502179055508073ffffffffffffffffffffffffffffffffffffffff167f02f93fdaafad8edad1ca75101b1fbda62e64ab9afc26d0ea801ccf6ef02c09ab60405160405180910390a250565b600160009054906101000a900473ffffffffffffffffffffffffffffffffffffffff1681565b60006020528060005260406000206000915090508060000180546107b990610d74565b80601f01602080910402602001604051908101604052809291908181526020018280546107e590610d74565b80156108325780601f1061080757610100808354040283529160200191610832565b820191906000526020600020905b81548152906001019060200180831161081557829003601f168201915b5050505050908060010160009054906101000a900473ffffffffffffffffffffffffffffffffffffffff16908060010160149054906101000a900460ff16905083565b82805461088190610d74565b90600052602060002090601f0160209004810192826108a357600085556108ea565b82601f106108bc57805160ff19168380011785556108ea565b828001600101855582156108ea579182015b828111156108e95782518255916020019190600101906108ce565b5b5090506108f791906108fb565b5090565b5b808211156109145760008160009055506001016108fc565b5090565b600061092b61092684610ca8565b610c77565b90508281526020810184848401111561094357600080fd5b61094e848285610d32565b509392505050565b60008135905061096581610e15565b92915050565b600082601f83011261097c57600080fd5b813561098c848260208601610918565b91505092915050565b6000602082840312156109a757600080fd5b60006109b584828501610956565b91505092915050565b6000602082840312156109d057600080fd5b600082013567ffffffffffffffff8111156109ea57600080fd5b6109f68482850161096b565b91505092915050565b610a0881610cf4565b82525050565b610a1781610d06565b82525050565b6000610a2882610cd8565b610a328185610ce3565b9350610a42818560208601610d41565b610a4b81610e04565b840191505092915050565b6000610a63601483610ce3565b91507f4e616d652063616e6e6f7420626520656d7074790000000000000000000000006000830152602082019050919050565b6000610aa3603483610ce3565b91507f4f6e6c7920746865206f776e6572206f7220636f6e7472616374206f776e657260008301527f2063616e20766572696679206964656e746974790000000000000000000000006020830152604082019050919050565b6000610b09601783610ce3565b91507f4964656e7469747920646f6573206e6f742065786973740000000000000000006000830152602082019050919050565b6000610b49601783610ce3565b91507f4964656e7469747920616c7265616479206578697374730000000000000000006000830152602082019050919050565b6000602082019050610b9160008301846109ff565b92915050565b60006020820190508181036000830152610bb18184610a1d565b905092915050565b60006060820190508181036000830152610bd38186610a1d565b9050610be260208301856109ff565b610bef6040830184610a0e565b949350505050565b60006020820190508181036000830152610c1081610a56565b9050919050565b60006020820190508181036000830152610c3081610a96565b9050919050565b60006020820190508181036000830152610c5081610afc565b9050919050565b60006020820190508181036000830152610c7081610b3c565b9050919050565b6000604051905081810181811067ffffffffffffffff82111715610c9e57610c9d610dd5565b5b8060405250919050565b600067ffffffffffffffff821115610cc357610cc2610dd5565b5b601f19601f8301169050602081019050919050565b600081519050919050565b600082825260208201905092915050565b6000610cff82610d12565b9050919050565b60008115159050919050565b600073ffffffffffffffffffffffffffffffffffffffff82169050919050565b82818337600083830152505050565b60005b83811015610d5f578082015181840152602081019050610d44565b83811115610d6e576000848401525b50505050565b60006002820490506001821680610d8c57607f821691505b60208210811415610da057610d9f610da6565b5b50919050565b7f4e487b7100000000000000000000000000000000000000000000000000000000600052602260045260246000fd5b7f4e487b7100000000000000000000000000000000000000000000000000000000600052604160045260246000fd5b6000601f19601f8301169050919050565b610e1e81610cf4565b8114610e2957600080fd5b5056fea2646970667358221220edaa6706d6203555a44373d4de35a97ea4e617a5cf402d409585eb8e9651b31e64736f6c63430008000033",
					"opcodes": "PUSH1 0x80 PUSH1 0x40 MSTORE CALLVALUE DUP1 ISZERO PUSH2 0x10 JUMPI PUSH1 0x0 DUP1 REVERT JUMPDEST POP CALLER PUSH1 0x1 PUSH1 0x0 PUSH2 0x100 EXP DUP2 SLOAD DUP2 PUSH20 0xFFFFFFFFFFFFFFFFFFFFFFFFFFFFFFFFFFFFFFFF MUL NOT AND SWAP1 DUP4 PUSH20 0xFFFFFFFFFFFFFFFFFFFFFFFFFFFFFFFFFFFFFFFF AND MUL OR SWAP1 SSTORE POP PUSH2 0xE62 DUP1 PUSH2 0x61 PUSH1 0x0 CODECOPY PUSH1 0x0 RETURN INVALID PUSH1 0x80 PUSH1 0x40 MSTORE CALLVALUE DUP1 ISZERO PUSH2 0x10 JUMPI PUSH1 0x0 DUP1 REVERT JUMPDEST POP PUSH1 0x4 CALLDATASIZE LT PUSH2 0x62 JUMPI PUSH1 0x0 CALLDATALOAD PUSH1 0xE0 SHR DUP1 PUSH4 0x2FEA7B81 EQ PUSH2 0x67 JUMPI DUP1 PUSH4 0x42ADE784 EQ PUSH2 0x99 JUMPI DUP1 PUSH4 0x442890D5 EQ PUSH2 0xB5 JUMPI DUP1 PUSH4 0xB5B90FD9 EQ PUSH2 0xD3 JUMPI DUP1 PUSH4 0xCE606EE0 EQ PUSH2 0xEF JUMPI DUP1 PUSH4 0xF653B81E EQ PUSH2 0x10D JUMPI JUMPDEST PUSH1 0x0 DUP1 REVERT JUMPDEST PUSH2 0x81 PUSH1 0x4 DUP1 CALLDATASIZE SUB DUP2 ADD SWAP1 PUSH2 0x7C SWAP2 SWAP1 PUSH2 0x995 JUMP JUMPDEST PUSH2 0x13F JUMP JUMPDEST PUSH1 0x40 MLOAD PUSH2 0x90 SWAP4 SWAP3 SWAP2 SWAP1 PUSH2 0xBB9 JUMP JUMPDEST PUSH1 0x40 MLOAD DUP1 SWAP2 SUB SWAP1 RETURN JUMPDEST PUSH2 0xB3 PUSH1 0x4 DUP1 CALLDATASIZE SUB DUP2 ADD SWAP1 PUSH2 0xAE SWAP2 SWAP1 PUSH2 0x9BE JUMP JUMPDEST PUSH2 0x2B1 JUMP JUMPDEST STOP JUMPDEST PUSH2 0xBD PUSH2 0x50F JUMP JUMPDEST PUSH1 0x40 MLOAD PUSH2 0xCA SWAP2 SWAP1 PUSH2 0xB7C JUMP JUMPDEST PUSH1 0x40 MLOAD DUP1 SWAP2 SUB SWAP1 RETURN JUMPDEST PUSH2 0xED PUSH1 0x4 DUP1 CALLDATASIZE SUB DUP2 ADD SWAP1 PUSH2 0xE8 SWAP2 SWAP1 PUSH2 0x995 JUMP JUMPDEST PUSH2 0x539 JUMP JUMPDEST STOP JUMPDEST PUSH2 0xF7 PUSH2 0x770 JUMP JUMPDEST PUSH1 0x40 MLOAD PUSH2 0x104 SWAP2 SWAP1 PUSH2 0xB7C JUMP JUMPDEST PUSH1 0x40 MLOAD DUP1 SWAP2 SUB SWAP1 RETURN JUMPDEST PUSH2 0x127 PUSH1 0x4 DUP1 CALLDATASIZE SUB DUP2 ADD SWAP1 PUSH2 0x122 SWAP2 SWAP1 PUSH2 0x995 JUMP JUMPDEST PUSH2 0x796 JUMP JUMPDEST PUSH1 0x40 MLOAD PUSH2 0x136 SWAP4 SWAP3 SWAP2 SWAP1 PUSH2 0xBB9 JUMP JUMPDEST PUSH1 0x40 MLOAD DUP1 SWAP2 SUB SWAP1 RETURN JUMPDEST PUSH1 0x60 PUSH1 0x0 DUP1 PUSH1 0x0 DUP1 PUSH1 0x0 DUP7 PUSH20 0xFFFFFFFFFFFFFFFFFFFFFFFFFFFFFFFFFFFFFFFF AND PUSH20 0xFFFFFFFFFFFFFFFFFFFFFFFFFFFFFFFFFFFFFFFF AND DUP2 MSTORE PUSH1 0x20 ADD SWAP1 DUP2 MSTORE PUSH1 0x20 ADD PUSH1 0x0 KECCAK256 PUSH1 0x40 MLOAD DUP1 PUSH1 0x60 ADD PUSH1 0x40 MSTORE SWAP1 DUP2 PUSH1 0x0 DUP3 ADD DUP1 SLOAD PUSH2 0x19F SWAP1 PUSH2 0xD74 JUMP JUMPDEST DUP1 PUSH1 0x1F ADD PUSH1 0x20 DUP1 SWAP2 DIV MUL PUSH1 0x20 ADD PUSH1 0x40 MLOAD SWAP1 DUP2 ADD PUSH1 0x40 MSTORE DUP1 SWAP3 SWAP2 SWAP1 DUP2 DUP2 MSTORE PUSH1 0x20 ADD DUP3 DUP1 SLOAD PUSH2 0x1CB SWAP1 PUSH2 0xD74 JUMP JUMPDEST DUP1 ISZERO PUSH2 0x218 JUMPI DUP1 PUSH1 0x1F LT PUSH2 0x1ED JUMPI PUSH2 0x100 DUP1 DUP4 SLOAD DIV MUL DUP4 MSTORE SWAP2 PUSH1 0x20 ADD SWAP2 PUSH2 0x218 JUMP JUMPDEST DUP3 ADD SWAP2 SWAP1 PUSH1 0x0 MSTORE PUSH1 0x20 PUSH1 0x0 KECCAK256 SWAP1 JUMPDEST DUP2 SLOAD DUP2 MSTORE SWAP1 PUSH1 0x1 ADD SWAP1 PUSH1 0x20 ADD DUP1 DUP4 GT PUSH2 0x1FB JUMPI DUP3 SWAP1 SUB PUSH1 0x1F AND DUP3 ADD SWAP2 JUMPDEST POP POP POP POP POP DUP2 MSTORE PUSH1 0x20 ADD PUSH1 0x1 DUP3 ADD PUSH1 0x0 SWAP1 SLOAD SWAP1 PUSH2 0x100 EXP SWAP1 DIV PUSH20 0xFFFFFFFFFFFFFFFFFFFFFFFFFFFFFFFFFFFFFFFF AND PUSH20 0xFFFFFFFFFFFFFFFFFFFFFFFFFFFFFFFFFFFFFFFF AND PUSH20 0xFFFFFFFFFFFFFFFFFFFFFFFFFFFFFFFFFFFFFFFF AND DUP2 MSTORE PUSH1 0x20 ADD PUSH1 0x1 DUP3 ADD PUSH1 0x14 SWAP1 SLOAD SWAP1 PUSH2 0x100 EXP SWAP1 DIV PUSH1 0xFF AND ISZERO ISZERO ISZERO ISZERO DUP2 MSTORE POP POP SWAP1 POP DUP1 PUSH1 0x0 ADD MLOAD DUP2 PUSH1 0x20 ADD MLOAD DUP3 PUSH1 0x40 ADD MLOAD SWAP4 POP SWAP4 POP SWAP4 POP POP SWAP2 SWAP4 SWAP1 SWAP3 POP JUMP JUMPDEST PUSH1 0x0 DUP2 MLOAD GT PUSH2 0x2F5 JUMPI PUSH1 0x40 MLOAD PUSH32 0x8C379A000000000000000000000000000000000000000000000000000000000 DUP2 MSTORE PUSH1 0x4 ADD PUSH2 0x2EC SWAP1 PUSH2 0xBF7 JUMP JUMPDEST PUSH1 0x40 MLOAD DUP1 SWAP2 SUB SWAP1 REVERT JUMPDEST PUSH1 0x0 PUSH20 0xFFFFFFFFFFFFFFFFFFFFFFFFFFFFFFFFFFFFFFFF AND PUSH1 0x0 DUP1 CALLER PUSH20 0xFFFFFFFFFFFFFFFFFFFFFFFFFFFFFFFFFFFFFFFF AND PUSH20 0xFFFFFFFFFFFFFFFFFFFFFFFFFFFFFFFFFFFFFFFF AND DUP2 MSTORE PUSH1 0x20 ADD SWAP1 DUP2 MSTORE PUSH1 0x20 ADD PUSH1 0x0 KECCAK256 PUSH1 0x1 ADD PUSH1 0x0 SWAP1 SLOAD SWAP1 PUSH2 0x100 EXP SWAP1 DIV PUSH20 0xFFFFFFFFFFFFFFFFFFFFFFFFFFFFFFFFFFFFFFFF AND PUSH20 0xFFFFFFFFFFFFFFFFFFFFFFFFFFFFFFFFFFFFFFFF AND EQ PUSH2 0x3C5 JUMPI PUSH1 0x40 MLOAD PUSH32 0x8C379A000000000000000000000000000000000000000000000000000000000 DUP2 MSTORE PUSH1 0x4 ADD PUSH2 0x3BC SWAP1 PUSH2 0xC57 JUMP JUMPDEST PUSH1 0x40 MLOAD DUP1 SWAP2 SUB SWAP1 REVERT JUMPDEST PUSH1 0x40 MLOAD DUP1 PUSH1 0x60 ADD PUSH1 0x40 MSTORE DUP1 DUP3 DUP2 MSTORE PUSH1 0x20 ADD CALLER PUSH20 0xFFFFFFFFFFFFFFFFFFFFFFFFFFFFFFFFFFFFFFFF AND DUP2 MSTORE PUSH1 0x20 ADD PUSH1 0x0 ISZERO ISZERO DUP2 MSTORE POP PUSH1 0x0 DUP1 CALLER PUSH20 0xFFFFFFFFFFFFFFFFFFFFFFFFFFFFFFFFFFFFFFFF AND PUSH20 0xFFFFFFFFFFFFFFFFFFFFFFFFFFFFFFFFFFFFFFFF AND DUP2 MSTORE PUSH1 0x20 ADD SWAP1 DUP2 MSTORE PUSH1 0x20 ADD PUSH1 0x0 KECCAK256 PUSH1 0x0 DUP3 ADD MLOAD DUP2 PUSH1 0x0 ADD SWAP1 DUP1 MLOAD SWAP1 PUSH1 0x20 ADD SWAP1 PUSH2 0x453 SWAP3 SWAP2 SWAP1 PUSH2 0x875 JUMP JUMPDEST POP PUSH1 0x20 DUP3 ADD MLOAD DUP2 PUSH1 0x1 ADD PUSH1 0x0 PUSH2 0x100 EXP DUP2 SLOAD DUP2 PUSH20 0xFFFFFFFFFFFFFFFFFFFFFFFFFFFFFFFFFFFFFFFF MUL NOT AND SWAP1 DUP4 PUSH20 0xFFFFFFFFFFFFFFFFFFFFFFFFFFFFFFFFFFFFFFFF AND MUL OR SWAP1 SSTORE POP PUSH1 0x40 DUP3 ADD MLOAD DUP2 PUSH1 0x1 ADD PUSH1 0x14 PUSH2 0x100 EXP DUP2 SLOAD DUP2 PUSH1 0xFF MUL NOT AND SWAP1 DUP4 ISZERO ISZERO MUL OR SWAP1 SSTORE POP SWAP1 POP POP CALLER PUSH20 0xFFFFFFFFFFFFFFFFFFFFFFFFFFFFFFFFFFFFFFFF AND PUSH32 0xC935904FDE3B784F003631FBA58F14C99E3135EC5E11D22997FF5ACA198F9474 DUP3 PUSH1 0x40 MLOAD PUSH2 0x504 SWAP2 SWAP1 PUSH2 0xB97 JUMP JUMPDEST PUSH1 0x40 MLOAD DUP1 SWAP2 SUB SWAP1 LOG2 POP JUMP JUMPDEST PUSH1 0x0 PUSH1 0x1 PUSH1 0x0 SWAP1 SLOAD SWAP1 PUSH2 0x100 EXP SWAP1 DIV PUSH20 0xFFFFFFFFFFFFFFFFFFFFFFFFFFFFFFFFFFFFFFFF AND SWAP1 POP SWAP1 JUMP JUMPDEST DUP1 PUSH20 0xFFFFFFFFFFFFFFFFFFFFFFFFFFFFFFFFFFFFFFFF AND CALLER PUSH20 0xFFFFFFFFFFFFFFFFFFFFFFFFFFFFFFFFFFFFFFFF AND EQ DUP1 PUSH2 0x5C0 JUMPI POP PUSH1 0x1 PUSH1 0x0 SWAP1 SLOAD SWAP1 PUSH2 0x100 EXP SWAP1 DIV PUSH20 0xFFFFFFFFFFFFFFFFFFFFFFFFFFFFFFFFFFFFFFFF AND PUSH20 0xFFFFFFFFFFFFFFFFFFFFFFFFFFFFFFFFFFFFFFFF AND CALLER PUSH20 0xFFFFFFFFFFFFFFFFFFFFFFFFFFFFFFFFFFFFFFFF AND EQ JUMPDEST PUSH2 0x5FF JUMPI PUSH1 0x40 MLOAD PUSH32 0x8C379A000000000000000000000000000000000000000000000000000000000 DUP2 MSTORE PUSH1 0x4 ADD PUSH2 0x5F6 SWAP1 PUSH2 0xC17 JUMP JUMPDEST PUSH1 0x40 MLOAD DUP1 SWAP2 SUB SWAP1 REVERT JUMPDEST PUSH1 0x0 PUSH20 0xFFFFFFFFFFFFFFFFFFFFFFFFFFFFFFFFFFFFFFFF AND PUSH1 0x0 DUP1 DUP4 PUSH20 0xFFFFFFFFFFFFFFFFFFFFFFFFFFFFFFFFFFFFFFFF AND PUSH20 0xFFFFFFFFFFFFFFFFFFFFFFFFFFFFFFFFFFFFFFFF AND DUP2 MSTORE PUSH1 0x20 ADD SWAP1 DUP2 MSTORE PUSH1 0x20 ADD PUSH1 0x0 KECCAK256 PUSH1 0x1 ADD PUSH1 0x0 SWAP1 SLOAD SWAP1 PUSH2 0x100 EXP SWAP1 DIV PUSH20 0xFFFFFFFFFFFFFFFFFFFFFFFFFFFFFFFFFFFFFFFF AND PUSH20 0xFFFFFFFFFFFFFFFFFFFFFFFFFFFFFFFFFFFFFFFF AND EQ ISZERO PUSH2 0x6D0 JUMPI PUSH1 0x40 MLOAD PUSH32 0x8C379A000000000000000000000000000000000000000000000000000000000 DUP2 MSTORE PUSH1 0x4 ADD PUSH2 0x6C7 SWAP1 PUSH2 0xC37 JUMP JUMPDEST PUSH1 0x40 MLOAD DUP1 SWAP2 SUB SWAP1 REVERT JUMPDEST PUSH1 0x1 PUSH1 0x0 DUP1 DUP4 PUSH20 0xFFFFFFFFFFFFFFFFFFFFFFFFFFFFFFFFFFFFFFFF AND PUSH20 0xFFFFFFFFFFFFFFFFFFFFFFFFFFFFFFFFFFFFFFFF AND DUP2 MSTORE PUSH1 0x20 ADD SWAP1 DUP2 MSTORE PUSH1 0x20 ADD PUSH1 0x0 KECCAK256 PUSH1 0x1 ADD PUSH1 0x14 PUSH2 0x100 EXP DUP2 SLOAD DUP2 PUSH1 0xFF MUL NOT AND SWAP1 DUP4 ISZERO ISZERO MUL OR SWAP1 SSTORE POP DUP1 PUSH20 0xFFFFFFFFFFFFFFFFFFFFFFFFFFFFFFFFFFFFFFFF AND PUSH32 0x2F93FDAAFAD8EDAD1CA75101B1FBDA62E64AB9AFC26D0EA801CCF6EF02C09AB PUSH1 0x40 MLOAD PUSH1 0x40 MLOAD DUP1 SWAP2 SUB SWAP1 LOG2 POP JUMP JUMPDEST PUSH1 0x1 PUSH1 0x0 SWAP1 SLOAD SWAP1 PUSH2 0x100 EXP SWAP1 DIV PUSH20 0xFFFFFFFFFFFFFFFFFFFFFFFFFFFFFFFFFFFFFFFF AND DUP2 JUMP JUMPDEST PUSH1 0x0 PUSH1 0x20 MSTORE DUP1 PUSH1 0x0 MSTORE PUSH1 0x40 PUSH1 0x0 KECCAK256 PUSH1 0x0 SWAP2 POP SWAP1 POP DUP1 PUSH1 0x0 ADD DUP1 SLOAD PUSH2 0x7B9 SWAP1 PUSH2 0xD74 JUMP JUMPDEST DUP1 PUSH1 0x1F ADD PUSH1 0x20 DUP1 SWAP2 DIV MUL PUSH1 0x20 ADD PUSH1 0x40 MLOAD SWAP1 DUP2 ADD PUSH1 0x40 MSTORE DUP1 SWAP3 SWAP2 SWAP1 DUP2 DUP2 MSTORE PUSH1 0x20 ADD DUP3 DUP1 SLOAD PUSH2 0x7E5 SWAP1 PUSH2 0xD74 JUMP JUMPDEST DUP1 ISZERO PUSH2 0x832 JUMPI DUP1 PUSH1 0x1F LT PUSH2 0x807 JUMPI PUSH2 0x100 DUP1 DUP4 SLOAD DIV MUL DUP4 MSTORE SWAP2 PUSH1 0x20 ADD SWAP2 PUSH2 0x832 JUMP JUMPDEST DUP3 ADD SWAP2 SWAP1 PUSH1 0x0 MSTORE PUSH1 0x20 PUSH1 0x0 KECCAK256 SWAP1 JUMPDEST DUP2 SLOAD DUP2 MSTORE SWAP1 PUSH1 0x1 ADD SWAP1 PUSH1 0x20 ADD DUP1 DUP4 GT PUSH2 0x815 JUMPI DUP3 SWAP1 SUB PUSH1 0x1F AND DUP3 ADD SWAP2 JUMPDEST POP POP POP POP POP SWAP1 DUP1 PUSH1 0x1 ADD PUSH1 0x0 SWAP1 SLOAD SWAP1 PUSH2 0x100 EXP SWAP1 DIV PUSH20 0xFFFFFFFFFFFFFFFFFFFFFFFFFFFFFFFFFFFFFFFF AND SWAP1 DUP1 PUSH1 0x1 ADD PUSH1 0x14 SWAP1 SLOAD SWAP1 PUSH2 0x100 EXP SWAP1 DIV PUSH1 0xFF AND SWAP1 POP DUP4 JUMP JUMPDEST DUP3 DUP1 SLOAD PUSH2 0x881 SWAP1 PUSH2 0xD74 JUMP JUMPDEST SWAP1 PUSH1 0x0 MSTORE PUSH1 0x20 PUSH1 0x0 KECCAK256 SWAP1 PUSH1 0x1F ADD PUSH1 0x20 SWAP1 DIV DUP2 ADD SWAP3 DUP3 PUSH2 0x8A3 JUMPI PUSH1 0x0 DUP6 SSTORE PUSH2 0x8EA JUMP JUMPDEST DUP3 PUSH1 0x1F LT PUSH2 0x8BC JUMPI DUP1 MLOAD PUSH1 0xFF NOT AND DUP4 DUP1 ADD OR DUP6 SSTORE PUSH2 0x8EA JUMP JUMPDEST DUP3 DUP1 ADD PUSH1 0x1 ADD DUP6 SSTORE DUP3 ISZERO PUSH2 0x8EA JUMPI SWAP2 DUP3 ADD JUMPDEST DUP3 DUP2 GT ISZERO PUSH2 0x8E9 JUMPI DUP3 MLOAD DUP3 SSTORE SWAP2 PUSH1 0x20 ADD SWAP2 SWAP1 PUSH1 0x1 ADD SWAP1 PUSH2 0x8CE JUMP JUMPDEST JUMPDEST POP SWAP1 POP PUSH2 0x8F7 SWAP2 SWAP1 PUSH2 0x8FB JUMP JUMPDEST POP SWAP1 JUMP JUMPDEST JUMPDEST DUP1 DUP3 GT ISZERO PUSH2 0x914 JUMPI PUSH1 0x0 DUP2 PUSH1 0x0 SWAP1 SSTORE POP PUSH1 0x1 ADD PUSH2 0x8FC JUMP JUMPDEST POP SWAP1 JUMP JUMPDEST PUSH1 0x0 PUSH2 0x92B PUSH2 0x926 DUP5 PUSH2 0xCA8 JUMP JUMPDEST PUSH2 0xC77 JUMP JUMPDEST SWAP1 POP DUP3 DUP2 MSTORE PUSH1 0x20 DUP2 ADD DUP5 DUP5 DUP5 ADD GT ISZERO PUSH2 0x943 JUMPI PUSH1 0x0 DUP1 REVERT JUMPDEST PUSH2 0x94E DUP5 DUP3 DUP6 PUSH2 0xD32 JUMP JUMPDEST POP SWAP4 SWAP3 POP POP POP JUMP JUMPDEST PUSH1 0x0 DUP2 CALLDATALOAD SWAP1 POP PUSH2 0x965 DUP2 PUSH2 0xE15 JUMP JUMPDEST SWAP3 SWAP2 POP POP JUMP JUMPDEST PUSH1 0x0 DUP3 PUSH1 0x1F DUP4 ADD SLT PUSH2 0x97C JUMPI PUSH1 0x0 DUP1 REVERT JUMPDEST DUP2 CALLDATALOAD PUSH2 0x98C DUP5 DUP3 PUSH1 0x20 DUP7 ADD PUSH2 0x918 JUMP JUMPDEST SWAP2 POP POP SWAP3 SWAP2 POP POP JUMP JUMPDEST PUSH1 0x0 PUSH1 0x20 DUP3 DUP5 SUB SLT ISZERO PUSH2 0x9A7 JUMPI PUSH1 0x0 DUP1 REVERT JUMPDEST PUSH1 0x0 PUSH2 0x9B5 DUP5 DUP3 DUP6 ADD PUSH2 0x956 JUMP JUMPDEST SWAP2 POP POP SWAP3 SWAP2 POP POP JUMP JUMPDEST PUSH1 0x0 PUSH1 0x20 DUP3 DUP5 SUB SLT ISZERO PUSH2 0x9D0 JUMPI PUSH1 0x0 DUP1 REVERT JUMPDEST PUSH1 0x0 DUP3 ADD CALLDATALOAD PUSH8 0xFFFFFFFFFFFFFFFF DUP2 GT ISZERO PUSH2 0x9EA JUMPI PUSH1 0x0 DUP1 REVERT JUMPDEST PUSH2 0x9F6 DUP5 DUP3 DUP6 ADD PUSH2 0x96B JUMP JUMPDEST SWAP2 POP POP SWAP3 SWAP2 POP POP JUMP JUMPDEST PUSH2 0xA08 DUP2 PUSH2 0xCF4 JUMP JUMPDEST DUP3 MSTORE POP POP JUMP JUMPDEST PUSH2 0xA17 DUP2 PUSH2 0xD06 JUMP JUMPDEST DUP3 MSTORE POP POP JUMP JUMPDEST PUSH1 0x0 PUSH2 0xA28 DUP3 PUSH2 0xCD8 JUMP JUMPDEST PUSH2 0xA32 DUP2 DUP6 PUSH2 0xCE3 JUMP JUMPDEST SWAP4 POP PUSH2 0xA42 DUP2 DUP6 PUSH1 0x20 DUP7 ADD PUSH2 0xD41 JUMP JUMPDEST PUSH2 0xA4B DUP2 PUSH2 0xE04 JUMP JUMPDEST DUP5 ADD SWAP2 POP POP SWAP3 SWAP2 POP POP JUMP JUMPDEST PUSH1 0x0 PUSH2 0xA63 PUSH1 0x14 DUP4 PUSH2 0xCE3 JUMP JUMPDEST SWAP2 POP PUSH32 0x4E616D652063616E6E6F7420626520656D707479000000000000000000000000 PUSH1 0x0 DUP4 ADD MSTORE PUSH1 0x20 DUP3 ADD SWAP1 POP SWAP2 SWAP1 POP JUMP JUMPDEST PUSH1 0x0 PUSH2 0xAA3 PUSH1 0x34 DUP4 PUSH2 0xCE3 JUMP JUMPDEST SWAP2 POP PUSH32 0x4F6E6C7920746865206F776E6572206F7220636F6E7472616374206F776E6572 PUSH1 0x0 DUP4 ADD MSTORE PUSH32 0x2063616E20766572696679206964656E74697479000000000000000000000000 PUSH1 0x20 DUP4 ADD MSTORE PUSH1 0x40 DUP3 ADD SWAP1 POP SWAP2 SWAP1 POP JUMP JUMPDEST PUSH1 0x0 PUSH2 0xB09 PUSH1 0x17 DUP4 PUSH2 0xCE3 JUMP JUMPDEST SWAP2 POP PUSH32 0x4964656E7469747920646F6573206E6F74206578697374000000000000000000 PUSH1 0x0 DUP4 ADD MSTORE PUSH1 0x20 DUP3 ADD SWAP1 POP SWAP2 SWAP1 POP JUMP JUMPDEST PUSH1 0x0 PUSH2 0xB49 PUSH1 0x17 DUP4 PUSH2 0xCE3 JUMP JUMPDEST SWAP2 POP PUSH32 0x4964656E7469747920616C726561647920657869737473000000000000000000 PUSH1 0x0 DUP4 ADD MSTORE PUSH1 0x20 DUP3 ADD SWAP1 POP SWAP2 SWAP1 POP JUMP JUMPDEST PUSH1 0x0 PUSH1 0x20 DUP3 ADD SWAP1 POP PUSH2 0xB91 PUSH1 0x0 DUP4 ADD DUP5 PUSH2 0x9FF JUMP JUMPDEST SWAP3 SWAP2 POP POP JUMP JUMPDEST PUSH1 0x0 PUSH1 0x20 DUP3 ADD SWAP1 POP DUP2 DUP2 SUB PUSH1 0x0 DUP4 ADD MSTORE PUSH2 0xBB1 DUP2 DUP5 PUSH2 0xA1D JUMP JUMPDEST SWAP1 POP SWAP3 SWAP2 POP POP JUMP JUMPDEST PUSH1 0x0 PUSH1 0x60 DUP3 ADD SWAP1 POP DUP2 DUP2 SUB PUSH1 0x0 DUP4 ADD MSTORE PUSH2 0xBD3 DUP2 DUP7 PUSH2 0xA1D JUMP JUMPDEST SWAP1 POP PUSH2 0xBE2 PUSH1 0x20 DUP4 ADD DUP6 PUSH2 0x9FF JUMP JUMPDEST PUSH2 0xBEF PUSH1 0x40 DUP4 ADD DUP5 PUSH2 0xA0E JUMP JUMPDEST SWAP5 SWAP4 POP POP POP POP JUMP JUMPDEST PUSH1 0x0 PUSH1 0x20 DUP3 ADD SWAP1 POP DUP2 DUP2 SUB PUSH1 0x0 DUP4 ADD MSTORE PUSH2 0xC10 DUP2 PUSH2 0xA56 JUMP JUMPDEST SWAP1 POP SWAP2 SWAP1 POP JUMP JUMPDEST PUSH1 0x0 PUSH1 0x20 DUP3 ADD SWAP1 POP DUP2 DUP2 SUB PUSH1 0x0 DUP4 ADD MSTORE PUSH2 0xC30 DUP2 PUSH2 0xA96 JUMP JUMPDEST SWAP1 POP SWAP2 SWAP1 POP JUMP JUMPDEST PUSH1 0x0 PUSH1 0x20 DUP3 ADD SWAP1 POP DUP2 DUP2 SUB PUSH1 0x0 DUP4 ADD MSTORE PUSH2 0xC50 DUP2 PUSH2 0xAFC JUMP JUMPDEST SWAP1 POP SWAP2 SWAP1 POP JUMP JUMPDEST PUSH1 0x0 PUSH1 0x20 DUP3 ADD SWAP1 POP DUP2 DUP2 SUB PUSH1 0x0 DUP4 ADD MSTORE PUSH2 0xC70 DUP2 PUSH2 0xB3C JUMP JUMPDEST SWAP1 POP SWAP2 SWAP1 POP JUMP JUMPDEST PUSH1 0x0 PUSH1 0x40 MLOAD SWAP1 POP DUP2 DUP2 ADD DUP2 DUP2 LT PUSH8 0xFFFFFFFFFFFFFFFF DUP3 GT OR ISZERO PUSH2 0xC9E JUMPI PUSH2 0xC9D PUSH2 0xDD5 JUMP JUMPDEST JUMPDEST DUP1 PUSH1 0x40 MSTORE POP SWAP2 SWAP1 POP JUMP JUMPDEST PUSH1 0x0 PUSH8 0xFFFFFFFFFFFFFFFF DUP3 GT ISZERO PUSH2 0xCC3 JUMPI PUSH2 0xCC2 PUSH2 0xDD5 JUMP JUMPDEST JUMPDEST PUSH1 0x1F NOT PUSH1 0x1F DUP4 ADD AND SWAP1 POP PUSH1 0x20 DUP2 ADD SWAP1 POP SWAP2 SWAP1 POP JUMP JUMPDEST PUSH1 0x0 DUP2 MLOAD SWAP1 POP SWAP2 SWAP1 POP JUMP JUMPDEST PUSH1 0x0 DUP3 DUP3 MSTORE PUSH1 0x20 DUP3 ADD SWAP1 POP SWAP3 SWAP2 POP POP JUMP JUMPDEST PUSH1 0x0 PUSH2 0xCFF DUP3 PUSH2 0xD12 JUMP JUMPDEST SWAP1 POP SWAP2 SWAP1 POP JUMP JUMPDEST PUSH1 0x0 DUP2 ISZERO ISZERO SWAP1 POP SWAP2 SWAP1 POP JUMP JUMPDEST PUSH1 0x0 PUSH20 0xFFFFFFFFFFFFFFFFFFFFFFFFFFFFFFFFFFFFFFFF DUP3 AND SWAP1 POP SWAP2 SWAP1 POP JUMP JUMPDEST DUP3 DUP2 DUP4 CALLDATACOPY PUSH1 0x0 DUP4 DUP4 ADD MSTORE POP POP POP JUMP JUMPDEST PUSH1 0x0 JUMPDEST DUP4 DUP2 LT ISZERO PUSH2 0xD5F JUMPI DUP1 DUP3 ADD MLOAD DUP2 DUP5 ADD MSTORE PUSH1 0x20 DUP2 ADD SWAP1 POP PUSH2 0xD44 JUMP JUMPDEST DUP4 DUP2 GT ISZERO PUSH2 0xD6E JUMPI PUSH1 0x0 DUP5 DUP5 ADD MSTORE JUMPDEST POP POP POP POP JUMP JUMPDEST PUSH1 0x0 PUSH1 0x2 DUP3 DIV SWAP1 POP PUSH1 0x1 DUP3 AND DUP1 PUSH2 0xD8C JUMPI PUSH1 0x7F DUP3 AND SWAP2 POP JUMPDEST PUSH1 0x20 DUP3 LT DUP2 EQ ISZERO PUSH2 0xDA0 JUMPI PUSH2 0xD9F PUSH2 0xDA6 JUMP JUMPDEST JUMPDEST POP SWAP2 SWAP1 POP JUMP JUMPDEST PUSH32 0x4E487B7100000000000000000000000000000000000000000000000000000000 PUSH1 0x0 MSTORE PUSH1 0x22 PUSH1 0x4 MSTORE PUSH1 0x24 PUSH1 0x0 REVERT JUMPDEST PUSH32 0x4E487B7100000000000000000000000000000000000000000000000000000000 PUSH1 0x0 MSTORE PUSH1 0x41 PUSH1 0x4 MSTORE PUSH1 0x24 PUSH1 0x0 REVERT JUMPDEST PUSH1 0x0 PUSH1 0x1F NOT PUSH1 0x1F DUP4 ADD AND SWAP1 POP SWAP2 SWAP1 POP JUMP JUMPDEST PUSH2 0xE1E DUP2 PUSH2 0xCF4 JUMP JUMPDEST DUP2 EQ PUSH2 0xE29 JUMPI PUSH1 0x0 DUP1 REVERT JUMPDEST POP JUMP INVALID LOG2 PUSH5 0x6970667358 0x22 SLT KECCAK256 0xED 0xAA PUSH8 0x6D6203555A44373 0xD4 0xDE CALLDATALOAD 0xA9 PUSH31 0xA4E617A5CF402D409585EB8E9651B31E64736F6C6343000800003300000000 "
				},
				"gasEstimates": {
					"creation": {
						"codeDepositCost": "736400",
						"executionCost": "21639",
						"totalCost": "758039"
					},
					"external": {
						"contractOwner()": "1280",
						"createIdentity(string)": "infinite",
						"getContractOwner()": "1244",
						"getIdentity(address)": "infinite",
						"identities(address)": "infinite",
						"verifyIdentity(address)": "24552"
					}
				},
				"methodIdentifiers": {
					"contractOwner()": "ce606ee0",
					"createIdentity(string)": "42ade784",
					"getContractOwner()": "442890d5",
					"getIdentity(address)": "2fea7b81",
					"identities(address)": "f653b81e",
					"verifyIdentity(address)": "b5b90fd9"
				}
			},
			"storageLayout": {
				"storage": [
					{
						"astId": 13,
						"contract": "contracts/FP2.sol:DigitalIdentityManagement",
						"label": "identities",
						"offset": 0,
						"slot": "0",
						"type": "t_mapping(t_address,t_struct(Identity)8_storage)"
					},
					{
						"astId": 15,
						"contract": "contracts/FP2.sol:DigitalIdentityManagement",
						"label": "contractOwner",
						"offset": 0,
						"slot": "1",
						"type": "t_address"
					}
				],
				"types": {
					"t_address": {
						"encoding": "inplace",
						"label": "address",
						"numberOfBytes": "20"
					},
					"t_bool": {
						"encoding": "inplace",
						"label": "bool",
						"numberOfBytes": "1"
					},
					"t_mapping(t_address,t_struct(Identity)8_storage)": {
						"encoding": "mapping",
						"key": "t_address",
						"label": "mapping(address => struct DigitalIdentityManagement.Identity)",
						"numberOfBytes": "32",
						"value": "t_struct(Identity)8_storage"
					},
					"t_string_storage": {
						"encoding": "bytes",
						"label": "string",
						"numberOfBytes": "32"
					},
					"t_struct(Identity)8_storage": {
						"encoding": "inplace",
						"label": "struct DigitalIdentityManagement.Identity",
						"members": [
							{
								"astId": 3,
								"contract": "contracts/FP2.sol:DigitalIdentityManagement",
								"label": "name",
								"offset": 0,
								"slot": "0",
								"type": "t_string_storage"
							},
							{
								"astId": 5,
								"contract": "contracts/FP2.sol:DigitalIdentityManagement",
								"label": "owner",
								"offset": 0,
								"slot": "1",
								"type": "t_address"
							},
							{
								"astId": 7,
								"contract": "contracts/FP2.sol:DigitalIdentityManagement",
								"label": "verified",
								"offset": 20,
								"slot": "1",
								"type": "t_bool"
							}
						],
						"numberOfBytes": "64"
					}
				}
			},
			"userdoc": {
				"kind": "user",
				"methods": {},
				"version": 1
			}
		}
	}
}